{
  "contractName": "lands",
  "abi": [
    {
      "inputs": [
        {
          "internalType": "address",
          "name": "",
          "type": "address"
        }
      ],
      "name": "admins",
      "outputs": [
        {
          "internalType": "address",
          "name": "adminAdress",
          "type": "address"
        },
        {
          "internalType": "string",
          "name": "adminName",
          "type": "string"
        },
        {
          "internalType": "string",
          "name": "area",
          "type": "string"
        }
      ],
      "stateMutability": "view",
      "type": "function",
      "constant": true
    },
    {
      "inputs": [
        {
          "internalType": "string",
          "name": "",
          "type": "string"
        },
        {
          "internalType": "string",
          "name": "",
          "type": "string"
        },
        {
          "internalType": "uint256",
          "name": "",
          "type": "uint256"
        }
      ],
      "name": "landDetailsMap",
      "outputs": [
        {
          "internalType": "address",
          "name": "owner",
          "type": "address"
        },
        {
          "internalType": "address",
          "name": "admin",
          "type": "address"
        },
        {
          "internalType": "uint256",
          "name": "propertyPID",
          "type": "uint256"
        },
        {
          "internalType": "uint256",
          "name": "surveynumb",
          "type": "uint256"
        },
        {
          "internalType": "uint256",
          "name": "index",
          "type": "uint256"
        },
        {
          "internalType": "bool",
          "name": "registered",
          "type": "bool"
        },
        {
          "internalType": "bool",
          "name": "makeAvialbel",
          "type": "bool"
        },
        {
          "internalType": "string",
          "name": "area",
          "type": "string"
        },
        {
          "internalType": "uint256",
          "name": "size_meter",
          "type": "uint256"
        },
        {
          "internalType": "uint256",
          "name": "noOfRequested",
          "type": "uint256"
        }
      ],
      "stateMutability": "view",
      "type": "function",
      "constant": true
    },
    {
      "inputs": [
        {
          "internalType": "address",
          "name": "",
          "type": "address"
        },
        {
          "internalType": "uint256",
          "name": "",
          "type": "uint256"
        }
      ],
      "name": "ownerMapsProperty",
      "outputs": [
        {
          "internalType": "uint256",
          "name": "surveynumber",
          "type": "uint256"
        },
        {
          "internalType": "string",
          "name": "state",
          "type": "string"
        },
        {
          "internalType": "string",
          "name": "city",
          "type": "string"
        }
      ],
      "stateMutability": "view",
      "type": "function",
      "constant": true
    },
    {
      "inputs": [
        {
          "internalType": "address",
          "name": "",
          "type": "address"
        },
        {
          "internalType": "uint256",
          "name": "",
          "type": "uint256"
        }
      ],
      "name": "registeredland",
      "outputs": [
        {
          "internalType": "uint256",
          "name": "surveynumber",
          "type": "uint256"
        },
        {
          "internalType": "string",
          "name": "state",
          "type": "string"
        },
        {
          "internalType": "string",
          "name": "city",
          "type": "string"
        }
      ],
      "stateMutability": "view",
      "type": "function",
      "constant": true
    },
    {
      "inputs": [],
      "name": "totalAdmin",
      "outputs": [
        {
          "internalType": "uint256",
          "name": "",
          "type": "uint256"
        }
      ],
      "stateMutability": "view",
      "type": "function",
      "constant": true
    },
    {
      "inputs": [],
      "name": "totalIndices",
      "outputs": [
        {
          "internalType": "uint256",
          "name": "",
          "type": "uint256"
        }
      ],
      "stateMutability": "view",
      "type": "function",
      "constant": true
    },
    {
      "inputs": [
        {
          "internalType": "address",
          "name": "",
          "type": "address"
        }
      ],
      "name": "userProfile",
      "outputs": [
        {
          "internalType": "address",
          "name": "useraddress",
          "type": "address"
        },
        {
          "internalType": "string",
          "name": "fullname",
          "type": "string"
        },
        {
          "internalType": "string",
          "name": "contact",
          "type": "string"
        },
        {
          "internalType": "string",
          "name": "email",
          "type": "string"
        },
        {
          "internalType": "uint256",
          "name": "totalIndices",
          "type": "uint256"
        },
        {
          "internalType": "uint256",
          "name": "requesIndices",
          "type": "uint256"
        }
      ],
      "stateMutability": "view",
      "type": "function",
      "constant": true
    },
    {
      "inputs": [
        {
          "internalType": "address",
          "name": "owner",
          "type": "address"
        }
      ],
      "name": "getOwnerLandIds",
      "outputs": [
        {
          "internalType": "uint256",
          "name": "",
          "type": "uint256"
        }
      ],
      "stateMutability": "view",
      "type": "function",
      "constant": true
    },
    {
      "inputs": [
        {
          "internalType": "address",
          "name": "_adminAddress",
          "type": "address"
        },
        {
          "internalType": "string",
          "name": "_adminName",
          "type": "string"
        },
        {
          "internalType": "string",
          "name": "_city",
          "type": "string"
        }
      ],
      "name": "addAdmin",
      "outputs": [],
      "stateMutability": "nonpayable",
      "type": "function"
    },
    {
      "inputs": [
        {
          "internalType": "string",
          "name": "_city",
          "type": "string"
        },
        {
          "internalType": "string",
          "name": "_state",
          "type": "string"
        },
        {
          "internalType": "uint256",
          "name": "_propertyPID",
          "type": "uint256"
        },
        {
          "internalType": "uint256",
          "name": "_surveynumber",
          "type": "uint256"
        },
        {
          "internalType": "address",
          "name": "_owner",
          "type": "address"
        },
        {
          "internalType": "string",
          "name": "_area",
          "type": "string"
        },
        {
          "internalType": "uint256",
          "name": "_size_meter",
          "type": "uint256"
        }
      ],
      "name": "registerLand",
      "outputs": [],
      "stateMutability": "nonpayable",
      "type": "function"
    },
    {
      "inputs": [
        {
          "internalType": "string",
          "name": "_fullName",
          "type": "string"
        },
        {
          "internalType": "string",
          "name": "_email",
          "type": "string"
        },
        {
          "internalType": "string",
          "name": "_contact",
          "type": "string"
        }
      ],
      "name": "setUserProfile",
      "outputs": [],
      "stateMutability": "nonpayable",
      "type": "function"
    },
    {
      "inputs": [
        {
          "internalType": "uint256",
          "name": "indexNo",
          "type": "uint256"
        }
      ],
      "name": "MakePropertyAvailble",
      "outputs": [],
      "stateMutability": "nonpayable",
      "type": "function"
    },
    {
      "inputs": [
        {
          "internalType": "string",
          "name": "_state",
          "type": "string"
        },
        {
          "internalType": "string",
          "name": "_city",
          "type": "string"
        },
        {
          "internalType": "uint256",
          "name": "_surveynumber",
          "type": "uint256"
        }
      ],
      "name": "RequestForBuy",
      "outputs": [],
      "stateMutability": "nonpayable",
      "type": "function"
    },
    {
      "inputs": [
        {
          "internalType": "uint256",
          "name": "_index",
          "type": "uint256"
        },
        {
          "internalType": "uint256",
          "name": "_reqNo",
          "type": "uint256"
        }
      ],
      "name": "AcceptRequest",
      "outputs": [],
      "stateMutability": "payable",
      "type": "function",
      "payable": true
    },
    {
      "inputs": [
        {
          "internalType": "string",
          "name": "_state",
          "type": "string"
        },
        {
          "internalType": "string",
          "name": "_city",
          "type": "string"
        },
        {
          "internalType": "uint256",
          "name": "_surveyNo",
          "type": "uint256"
        }
      ],
      "name": "getLandDetails",
      "outputs": [
        {
          "internalType": "address",
          "name": "",
          "type": "address"
        },
        {
          "internalType": "uint256",
          "name": "",
          "type": "uint256"
        },
        {
          "internalType": "uint256",
          "name": "",
          "type": "uint256"
        }
      ],
      "stateMutability": "view",
      "type": "function",
      "constant": true
    },
    {
      "inputs": [
        {
          "internalType": "string",
          "name": "_state",
          "type": "string"
        },
        {
          "internalType": "string",
          "name": "_city",
          "type": "string"
        },
        {
          "internalType": "uint256",
          "name": "_surveyNo",
          "type": "uint256"
        }
      ],
      "name": "getRequestcnt_proId",
      "outputs": [
        {
          "internalType": "uint256",
          "name": "",
          "type": "uint256"
        },
        {
          "internalType": "uint256",
          "name": "",
          "type": "uint256"
        }
      ],
      "stateMutability": "view",
      "type": "function",
      "constant": true
    },
    {
      "inputs": [
        {
          "internalType": "string",
          "name": "_state",
          "type": "string"
        },
        {
          "internalType": "string",
          "name": "_city",
          "type": "string"
        },
        {
          "internalType": "uint256",
          "name": "_surveyNo",
          "type": "uint256"
        },
        {
          "internalType": "uint256",
          "name": "_reqIndex",
          "type": "uint256"
        }
      ],
      "name": "getRequesterDetail",
      "outputs": [
        {
          "internalType": "address",
          "name": "",
          "type": "address"
        }
      ],
      "stateMutability": "view",
      "type": "function",
      "constant": true
    },
    {
      "inputs": [
        {
          "internalType": "string",
          "name": "_state",
          "type": "string"
        },
        {
          "internalType": "string",
          "name": "_city",
          "type": "string"
        },
        {
          "internalType": "uint256",
          "name": "_surveyNo",
          "type": "uint256"
        }
      ],
      "name": "IsAvailable",
      "outputs": [
        {
          "internalType": "bool",
          "name": "",
          "type": "bool"
        }
      ],
      "stateMutability": "view",
      "type": "function",
      "constant": true
    },
    {
      "inputs": [
        {
          "internalType": "uint256",
          "name": "index",
          "type": "uint256"
        }
      ],
      "name": "getownerOwns",
      "outputs": [
        {
          "internalType": "string",
          "name": "",
          "type": "string"
        },
        {
          "internalType": "string",
          "name": "",
          "type": "string"
        },
        {
          "internalType": "uint256",
          "name": "",
          "type": "uint256"
        }
      ],
      "stateMutability": "view",
      "type": "function",
      "constant": true
    },
    {
      "inputs": [
        {
          "internalType": "uint256",
          "name": "index",
          "type": "uint256"
        }
      ],
      "name": "getRequestedLands",
      "outputs": [
        {
          "internalType": "string",
          "name": "",
          "type": "string"
        },
        {
          "internalType": "string",
          "name": "",
          "type": "string"
        },
        {
          "internalType": "uint256",
          "name": "",
          "type": "uint256"
        }
      ],
      "stateMutability": "view",
      "type": "function",
      "constant": true
    },
    {
      "inputs": [],
      "name": "getUserProfile",
      "outputs": [
        {
          "internalType": "string",
          "name": "",
          "type": "string"
        },
        {
          "internalType": "string",
          "name": "",
          "type": "string"
        },
        {
          "internalType": "string",
          "name": "",
          "type": "string"
        }
      ],
      "stateMutability": "view",
      "type": "function",
      "constant": true
    }
  ],
  "bytecode": "0x60806040526001600655600160075534801561001a57600080fd5b506138338061002a6000396000f3fe60806040526004361061012a5760003560e01c806362b32578116100ab578063892ab80f1161006f578063892ab80f14610455578063d1dbeff21461047e578063d41cc5c8146104bd578063ec3a93a1146104d9578063f757b59014610516578063ff990157146105535761012a565b806362b325781461035457806364319e331461039357806367440306146103be5780636f61c744146103fd5780638037fac51461042a5761012a565b80633e5de76d116100f25780633e5de76d1461025d57806341913ddd14610286578063429b62e5146102c35780635babf5ef14610302578063604c9bcd1461032b5761012a565b806316e8da341461012f5780631c8e89621461017557806327627810146101b75780632ca305f3146101f5578063349ad5aa14610234575b600080fd5b34801561013b57600080fd5b5061015660048036038101906101519190612b56565b610592565b60405161016c9a99989796959493929190612ccb565b60405180910390f35b34801561018157600080fd5b5061019c60048036038101906101979190612d9a565b61070e565b6040516101ae96959493929190612dc7565b60405180910390f35b3480156101c357600080fd5b506101de60048036038101906101d99190612b56565b610902565b6040516101ec929190612e3d565b60405180910390f35b34801561020157600080fd5b5061021c60048036038101906102179190612e66565b6109bb565b60405161022b93929190612e93565b60405180910390f35b34801561024057600080fd5b5061025b60048036038101906102569190612ed8565b610bea565b005b34801561026957600080fd5b50610284600480360381019061027f9190612e66565b610c69565b005b34801561029257600080fd5b506102ad60048036038101906102a89190612f7f565b610f90565b6040516102ba919061301e565b60405180910390f35b3480156102cf57600080fd5b506102ea60048036038101906102e59190612d9a565b611024565b6040516102f993929190613039565b60405180910390f35b34801561030e57600080fd5b506103296004803603810190610324919061307e565b61117e565b005b34801561033757600080fd5b50610352600480360381019061034d9190612b56565b611246565b005b34801561036057600080fd5b5061037b60048036038101906103769190612b56565b6114e9565b60405161038a93929190613109565b60405180910390f35b34801561039f57600080fd5b506103a861161b565b6040516103b59190613140565b60405180910390f35b3480156103ca57600080fd5b506103e560048036038101906103e0919061315b565b611621565b6040516103f49392919061319b565b60405180910390f35b34801561040957600080fd5b50610412611768565b604051610421939291906131e0565b60405180910390f35b34801561043657600080fd5b5061043f6119eb565b60405161044c9190613140565b60405180910390f35b34801561046157600080fd5b5061047c6004803603810190610477919061322c565b6119f1565b005b34801561048a57600080fd5b506104a560048036038101906104a0919061315b565b611c9e565b6040516104b49392919061319b565b60405180910390f35b6104d760048036038101906104d29190613322565b611de5565b005b3480156104e557600080fd5b5061050060048036038101906104fb9190612b56565b612682565b60405161050d9190613362565b60405180910390f35b34801561052257600080fd5b5061053d60048036038101906105389190612d9a565b6126ee565b60405161054a9190613140565b60405180910390f35b34801561055f57600080fd5b5061057a60048036038101906105759190612e66565b61273a565b60405161058993929190612e93565b60405180910390f35b6004838051602081018201805184825260208301602085012081835280955050505050508280516020810182018051848252602083016020850120818352809550505050505060205280600052604060002060009250925050508060000160009054906101000a900473ffffffffffffffffffffffffffffffffffffffff16908060010160009054906101000a900473ffffffffffffffffffffffffffffffffffffffff16908060020154908060030154908060040154908060050160009054906101000a900460ff16908060050160019054906101000a900460ff169080600601805461067f906133ac565b80601f01602080910402602001604051908101604052809291908181526020018280546106ab906133ac565b80156106f85780601f106106cd576101008083540402835291602001916106f8565b820191906000526020600020905b8154815290600101906020018083116106db57829003601f168201915b505050505090806007015490806008015490508a565b60056020528060005260406000206000915090508060000160009054906101000a900473ffffffffffffffffffffffffffffffffffffffff1690806001018054610757906133ac565b80601f0160208091040260200160405190810160405280929190818152602001828054610783906133ac565b80156107d05780601f106107a5576101008083540402835291602001916107d0565b820191906000526020600020905b8154815290600101906020018083116107b357829003601f168201915b5050505050908060020180546107e5906133ac565b80601f0160208091040260200160405190810160405280929190818152602001828054610811906133ac565b801561085e5780601f106108335761010080835404028352916020019161085e565b820191906000526020600020905b81548152906001019060200180831161084157829003601f168201915b505050505090806003018054610873906133ac565b80601f016020809104026020016040519081016040528092919081815260200182805461089f906133ac565b80156108ec5780601f106108c1576101008083540402835291602001916108ec565b820191906000526020600020905b8154815290600101906020018083116108cf57829003601f168201915b5050505050908060040154908060050154905086565b60008060006004866040516109179190613419565b9081526020016040518091039020856040516109339190613419565b90815260200160405180910390206000858152602001908152602001600020600801549050600060048760405161096a9190613419565b9081526020016040518091039020866040516109869190613419565b908152602001604051809103902060008681526020019081526020016000206002015490508181935093505050935093915050565b606080600080600260003373ffffffffffffffffffffffffffffffffffffffff1673ffffffffffffffffffffffffffffffffffffffff16815260200190815260200160002060008681526020019081526020016000206000015490506000600260003373ffffffffffffffffffffffffffffffffffffffff1673ffffffffffffffffffffffffffffffffffffffff16815260200190815260200160002060008781526020019081526020016000206001018054610a77906133ac565b80601f0160208091040260200160405190810160405280929190818152602001828054610aa3906133ac565b8015610af05780601f10610ac557610100808354040283529160200191610af0565b820191906000526020600020905b815481529060010190602001808311610ad357829003601f168201915b505050505090506000600360003373ffffffffffffffffffffffffffffffffffffffff1673ffffffffffffffffffffffffffffffffffffffff16815260200190815260200160002060008881526020019081526020016000206002018054610b57906133ac565b80601f0160208091040260200160405190810160405280929190818152602001828054610b83906133ac565b8015610bd05780601f10610ba557610100808354040283529160200191610bd0565b820191906000526020600020905b815481529060010190602001808311610bb357829003601f168201915b505050505090508181849550955095505050509193909250565b6000600560003373ffffffffffffffffffffffffffffffffffffffff1673ffffffffffffffffffffffffffffffffffffffff168152602001908152602001600020905083816001019081610c3e91906135dc565b5082816003019081610c5091906135dc565b5081816002019081610c6291906135dc565b5050505050565b6000600260003373ffffffffffffffffffffffffffffffffffffffff1673ffffffffffffffffffffffffffffffffffffffff16815260200190815260200160002060008381526020019081526020016000206001018054610cc9906133ac565b80601f0160208091040260200160405190810160405280929190818152602001828054610cf5906133ac565b8015610d425780601f10610d1757610100808354040283529160200191610d42565b820191906000526020600020905b815481529060010190602001808311610d2557829003601f168201915b505050505090506000600260003373ffffffffffffffffffffffffffffffffffffffff1673ffffffffffffffffffffffffffffffffffffffff16815260200190815260200160002060008481526020019081526020016000206002018054610da9906133ac565b80601f0160208091040260200160405190810160405280929190818152602001828054610dd5906133ac565b8015610e225780601f10610df757610100808354040283529160200191610e22565b820191906000526020600020905b815481529060010190602001808311610e0557829003601f168201915b505050505090506000600260003373ffffffffffffffffffffffffffffffffffffffff1673ffffffffffffffffffffffffffffffffffffffff168152602001908152602001600020600085815260200190815260200160002060000154905060001515600484604051610e959190613419565b908152602001604051809103902083604051610eb19190613419565b9081526020016040518091039020600083815260200190815260200160002060050160019054906101000a900460ff16151514610f23576040517f08c379a0000000000000000000000000000000000000000000000000000000008152600401610f1a906136fa565b60405180910390fd5b6001600484604051610f359190613419565b908152602001604051809103902083604051610f519190613419565b9081526020016040518091039020600083815260200190815260200160002060050160016101000a81548160ff02191690831515021790555050505050565b600080600486604051610fa39190613419565b908152602001604051809103902085604051610fbf9190613419565b90815260200160405180910390206000858152602001908152602001600020600901600084815260200190815260200160002060000160009054906101000a900473ffffffffffffffffffffffffffffffffffffffff16905080915050949350505050565b60016020528060005260406000206000915090508060000160009054906101000a900473ffffffffffffffffffffffffffffffffffffffff169080600101805461106d906133ac565b80601f0160208091040260200160405190810160405280929190818152602001828054611099906133ac565b80156110e65780601f106110bb576101008083540402835291602001916110e6565b820191906000526020600020905b8154815290600101906020018083116110c957829003601f168201915b5050505050908060020180546110fb906133ac565b80601f0160208091040260200160405190810160405280929190818152602001828054611127906133ac565b80156111745780601f1061114957610100808354040283529160200191611174565b820191906000526020600020905b81548152906001019060200180831161115757829003601f168201915b5050505050905083565b6000600160008573ffffffffffffffffffffffffffffffffffffffff1673ffffffffffffffffffffffffffffffffffffffff1681526020019081526020016000209050600660008154809291906111d490613749565b9190505550838160000160006101000a81548173ffffffffffffffffffffffffffffffffffffffff021916908373ffffffffffffffffffffffffffffffffffffffff1602179055508181600201908161122d91906135dc565b508281600101908161123f91906135dc565b5050505050565b60006004846040516112589190613419565b9081526020016040518091039020836040516112749190613419565b908152602001604051809103902060008381526020019081526020016000209050600115158160050160019054906101000a900460ff161515146112ed576040517f08c379a00000000000000000000000000000000000000000000000000000000081526004016112e4906137dd565b60405180910390fd5b6000816008015490503382600901600083815260200190815260200160002060000160006101000a81548173ffffffffffffffffffffffffffffffffffffffff021916908373ffffffffffffffffffffffffffffffffffffffff160217905550600560003373ffffffffffffffffffffffffffffffffffffffff1673ffffffffffffffffffffffffffffffffffffffff16815260200190815260200160002060050154826009016000838152602001908152602001600020600101819055508160080160008154809291906113c190613749565b91905055506000600360003373ffffffffffffffffffffffffffffffffffffffff1673ffffffffffffffffffffffffffffffffffffffff1681526020019081526020016000206000600560003373ffffffffffffffffffffffffffffffffffffffff1673ffffffffffffffffffffffffffffffffffffffff16815260200190815260200160002060050154815260200190815260200160002090508381600001819055508581600101908161147691906135dc565b508481600201908161148891906135dc565b50600560003373ffffffffffffffffffffffffffffffffffffffff1673ffffffffffffffffffffffffffffffffffffffff16815260200190815260200160002060050160008154809291906114dc90613749565b9190505550505050505050565b6000806000806004876040516114ff9190613419565b90815260200160405180910390208660405161151b9190613419565b9081526020016040518091039020600086815260200190815260200160002060000160009054906101000a900473ffffffffffffffffffffffffffffffffffffffff16905060006004886040516115729190613419565b90815260200160405180910390208760405161158e9190613419565b9081526020016040518091039020600087815260200190815260200160002060020154905060006004896040516115c59190613419565b9081526020016040518091039020886040516115e19190613419565b9081526020016040518091039020600088815260200190815260200160002060040154905082828295509550955050505093509350939050565b60065481565b600360205281600052604060002060205280600052604060002060009150915050806000015490806001018054611657906133ac565b80601f0160208091040260200160405190810160405280929190818152602001828054611683906133ac565b80156116d05780601f106116a5576101008083540402835291602001916116d0565b820191906000526020600020905b8154815290600101906020018083116116b357829003601f168201915b5050505050908060020180546116e5906133ac565b80601f0160208091040260200160405190810160405280929190818152602001828054611711906133ac565b801561175e5780601f106117335761010080835404028352916020019161175e565b820191906000526020600020905b81548152906001019060200180831161174157829003601f168201915b5050505050905083565b60608060606000600560003373ffffffffffffffffffffffffffffffffffffffff1673ffffffffffffffffffffffffffffffffffffffff16815260200190815260200160002060020180546117bc906133ac565b80601f01602080910402602001604051908101604052809291908181526020018280546117e8906133ac565b80156118355780601f1061180a57610100808354040283529160200191611835565b820191906000526020600020905b81548152906001019060200180831161181857829003601f168201915b505050505090506000600560003373ffffffffffffffffffffffffffffffffffffffff1673ffffffffffffffffffffffffffffffffffffffff168152602001908152602001600020600101805461188b906133ac565b80601f01602080910402602001604051908101604052809291908181526020018280546118b7906133ac565b80156119045780601f106118d957610100808354040283529160200191611904565b820191906000526020600020905b8154815290600101906020018083116118e757829003601f168201915b505050505090506000600560003373ffffffffffffffffffffffffffffffffffffffff1673ffffffffffffffffffffffffffffffffffffffff168152602001908152602001600020600301805461195a906133ac565b80601f0160208091040260200160405190810160405280929190818152602001828054611986906133ac565b80156119d35780601f106119a8576101008083540402835291602001916119d3565b820191906000526020600020905b8154815290600101906020018083116119b657829003601f168201915b50505050509050818184955095509550505050909192565b60075481565b6000600487604051611a039190613419565b908152602001604051809103902088604051611a1f9190613419565b9081526020016040518091039020600086815260200190815260200160002090506000600260008673ffffffffffffffffffffffffffffffffffffffff1673ffffffffffffffffffffffffffffffffffffffff1681526020019081526020016000206000600560008873ffffffffffffffffffffffffffffffffffffffff1673ffffffffffffffffffffffffffffffffffffffff1681526020019081526020016000206004015481526020019081526020016000209050848260000160006101000a81548173ffffffffffffffffffffffffffffffffffffffff021916908373ffffffffffffffffffffffffffffffffffffffff160217905550338260010160006101000a81548173ffffffffffffffffffffffffffffffffffffffff021916908373ffffffffffffffffffffffffffffffffffffffff160217905550868260020181905550858260030181905550600560008673ffffffffffffffffffffffffffffffffffffffff1673ffffffffffffffffffffffffffffffffffffffff16815260200190815260200160002060040154826004018190555060018260050160006101000a81548160ff02191690831515021790555060008260050160016101000a81548160ff02191690831515021790555082826007018190555083826006019081611c0d91906135dc565b5085816000018190555087816001019081611c2891906135dc565b5088816002019081611c3a91906135dc565b50600560008673ffffffffffffffffffffffffffffffffffffffff1673ffffffffffffffffffffffffffffffffffffffff1681526020019081526020016000206004016000815480929190611c8e90613749565b9190505550505050505050505050565b600260205281600052604060002060205280600052604060002060009150915050806000015490806001018054611cd4906133ac565b80601f0160208091040260200160405190810160405280929190818152602001828054611d00906133ac565b8015611d4d5780601f10611d2257610100808354040283529160200191611d4d565b820191906000526020600020905b815481529060010190602001808311611d3057829003601f168201915b505050505090806002018054611d62906133ac565b80601f0160208091040260200160405190810160405280929190818152602001828054611d8e906133ac565b8015611ddb5780601f10611db057610100808354040283529160200191611ddb565b820191906000526020600020905b815481529060010190602001808311611dbe57829003601f168201915b5050505050905083565b6000600260003373ffffffffffffffffffffffffffffffffffffffff1673ffffffffffffffffffffffffffffffffffffffff16815260200190815260200160002060008481526020019081526020016000206000015490506000600260003373ffffffffffffffffffffffffffffffffffffffff1673ffffffffffffffffffffffffffffffffffffffff16815260200190815260200160002060008581526020019081526020016000206001018054611e9d906133ac565b80601f0160208091040260200160405190810160405280929190818152602001828054611ec9906133ac565b8015611f165780601f10611eeb57610100808354040283529160200191611f16565b820191906000526020600020905b815481529060010190602001808311611ef957829003601f168201915b505050505090506000600260003373ffffffffffffffffffffffffffffffffffffffff1673ffffffffffffffffffffffffffffffffffffffff16815260200190815260200160002060008681526020019081526020016000206002018054611f7d906133ac565b80601f0160208091040260200160405190810160405280929190818152602001828054611fa9906133ac565b8015611ff65780601f10611fcb57610100808354040283529160200191611ff6565b820191906000526020600020905b815481529060010190602001808311611fd957829003601f168201915b50505050509050600060048360405161200f9190613419565b90815260200160405180910390208260405161202b9190613419565b90815260200160405180910390206000858152602001908152602001600020600901600086815260200190815260200160002060000160009054906101000a900473ffffffffffffffffffffffffffffffffffffffff16905060006004846040516120969190613419565b9081526020016040518091039020836040516120b29190613419565b9081526020016040518091039020600086815260200190815260200160002060080154905060005b818110156122f15760006004866040516120f49190613419565b9081526020016040518091039020856040516121109190613419565b90815260200160405180910390206000888152602001908152602001600020600901600083815260200190815260200160002060000160009054906101000a900473ffffffffffffffffffffffffffffffffffffffff169050600060048760405161217b9190613419565b9081526020016040518091039020866040516121979190613419565b908152602001604051809103902060008981526020019081526020016000206009016000848152602001908152602001600020600101549050600360008373ffffffffffffffffffffffffffffffffffffffff1673ffffffffffffffffffffffffffffffffffffffff16815260200190815260200160002060008281526020019081526020016000206000808201600090556001820160006122399190612969565b6002820160006122499190612969565b505060048760405161225b9190613419565b9081526020016040518091039020866040516122779190613419565b908152602001604051809103902060008981526020019081526020016000206009016000848152602001908152602001600020600080820160006101000a81549073ffffffffffffffffffffffffffffffffffffffff021916905560018201600090555050505080806122e990613749565b9150506120da565b50816004856040516123039190613419565b90815260200160405180910390208460405161231f9190613419565b9081526020016040518091039020600087815260200190815260200160002060000160006101000a81548173ffffffffffffffffffffffffffffffffffffffff021916908373ffffffffffffffffffffffffffffffffffffffff16021790555060006004856040516123919190613419565b9081526020016040518091039020846040516123ad9190613419565b9081526020016040518091039020600087815260200190815260200160002060050160016101000a81548160ff02191690831515021790555060006004856040516123f89190613419565b9081526020016040518091039020846040516124149190613419565b9081526020016040518091039020600087815260200190815260200160002060080181905550600260003373ffffffffffffffffffffffffffffffffffffffff1673ffffffffffffffffffffffffffffffffffffffff16815260200190815260200160002060008881526020019081526020016000206000808201600090556001820160006124a39190612969565b6002820160006124b39190612969565b50503373ffffffffffffffffffffffffffffffffffffffff166108fc671bc16d674ec800009081150290604051600060405180830381858888f19350505050158015612503573d6000803e3d6000fd5b506000600560008473ffffffffffffffffffffffffffffffffffffffff1673ffffffffffffffffffffffffffffffffffffffff1681526020019081526020016000206004015490506000600260008573ffffffffffffffffffffffffffffffffffffffff1673ffffffffffffffffffffffffffffffffffffffff16815260200190815260200160002060008381526020019081526020016000209050868160000181905550858160010190816125b991906135dc565b50848160020190816125cb91906135dc565b50816004876040516125dd9190613419565b9081526020016040518091039020866040516125f99190613419565b9081526020016040518091039020600089815260200190815260200160002060040181905550600560008573ffffffffffffffffffffffffffffffffffffffff1673ffffffffffffffffffffffffffffffffffffffff168152602001908152602001600020600401600081548092919061267290613749565b9190505550505050505050505050565b6000806004856040516126959190613419565b9081526020016040518091039020846040516126b19190613419565b9081526020016040518091039020600084815260200190815260200160002060050160019054906101000a900460ff169050809150509392505050565b6000600560008373ffffffffffffffffffffffffffffffffffffffff1673ffffffffffffffffffffffffffffffffffffffff168152602001908152602001600020600401549050919050565b606080600080600260003373ffffffffffffffffffffffffffffffffffffffff1673ffffffffffffffffffffffffffffffffffffffff16815260200190815260200160002060008681526020019081526020016000206000015490506000600260003373ffffffffffffffffffffffffffffffffffffffff1673ffffffffffffffffffffffffffffffffffffffff168152602001908152602001600020600087815260200190815260200160002060010180546127f6906133ac565b80601f0160208091040260200160405190810160405280929190818152602001828054612822906133ac565b801561286f5780601f106128445761010080835404028352916020019161286f565b820191906000526020600020905b81548152906001019060200180831161285257829003601f168201915b505050505090506000600360003373ffffffffffffffffffffffffffffffffffffffff1673ffffffffffffffffffffffffffffffffffffffff168152602001908152602001600020600088815260200190815260200160002060020180546128d6906133ac565b80601f0160208091040260200160405190810160405280929190818152602001828054612902906133ac565b801561294f5780601f106129245761010080835404028352916020019161294f565b820191906000526020600020905b81548152906001019060200180831161293257829003601f168201915b505050505090508181849550955095505050509193909250565b508054612975906133ac565b6000825580601f1061298757506129a6565b601f0160209004906000526020600020908101906129a591906129a9565b5b50565b5b808211156129c25760008160009055506001016129aa565b5090565b6000604051905090565b600080fd5b600080fd5b600080fd5b600080fd5b6000601f19601f8301169050919050565b7f4e487b7100000000000000000000000000000000000000000000000000000000600052604160045260246000fd5b612a2d826129e4565b810181811067ffffffffffffffff82111715612a4c57612a4b6129f5565b5b80604052505050565b6000612a5f6129c6565b9050612a6b8282612a24565b919050565b600067ffffffffffffffff821115612a8b57612a8a6129f5565b5b612a94826129e4565b9050602081019050919050565b82818337600083830152505050565b6000612ac3612abe84612a70565b612a55565b905082815260208101848484011115612adf57612ade6129df565b5b612aea848285612aa1565b509392505050565b600082601f830112612b0757612b066129da565b5b8135612b17848260208601612ab0565b91505092915050565b6000819050919050565b612b3381612b20565b8114612b3e57600080fd5b50565b600081359050612b5081612b2a565b92915050565b600080600060608486031215612b6f57612b6e6129d0565b5b600084013567ffffffffffffffff811115612b8d57612b8c6129d5565b5b612b9986828701612af2565b935050602084013567ffffffffffffffff811115612bba57612bb96129d5565b5b612bc686828701612af2565b9250506040612bd786828701612b41565b9150509250925092565b600073ffffffffffffffffffffffffffffffffffffffff82169050919050565b6000612c0c82612be1565b9050919050565b612c1c81612c01565b82525050565b612c2b81612b20565b82525050565b60008115159050919050565b612c4681612c31565b82525050565b600081519050919050565b600082825260208201905092915050565b60005b83811015612c86578082015181840152602081019050612c6b565b60008484015250505050565b6000612c9d82612c4c565b612ca78185612c57565b9350612cb7818560208601612c68565b612cc0816129e4565b840191505092915050565b600061014082019050612ce1600083018d612c13565b612cee602083018c612c13565b612cfb604083018b612c22565b612d08606083018a612c22565b612d156080830189612c22565b612d2260a0830188612c3d565b612d2f60c0830187612c3d565b81810360e0830152612d418186612c92565b9050612d51610100830185612c22565b612d5f610120830184612c22565b9b9a5050505050505050505050565b612d7781612c01565b8114612d8257600080fd5b50565b600081359050612d9481612d6e565b92915050565b600060208284031215612db057612daf6129d0565b5b6000612dbe84828501612d85565b91505092915050565b600060c082019050612ddc6000830189612c13565b8181036020830152612dee8188612c92565b90508181036040830152612e028187612c92565b90508181036060830152612e168186612c92565b9050612e256080830185612c22565b612e3260a0830184612c22565b979650505050505050565b6000604082019050612e526000830185612c22565b612e5f6020830184612c22565b9392505050565b600060208284031215612e7c57612e7b6129d0565b5b6000612e8a84828501612b41565b91505092915050565b60006060820190508181036000830152612ead8186612c92565b90508181036020830152612ec18185612c92565b9050612ed06040830184612c22565b949350505050565b600080600060608486031215612ef157612ef06129d0565b5b600084013567ffffffffffffffff811115612f0f57612f0e6129d5565b5b612f1b86828701612af2565b935050602084013567ffffffffffffffff811115612f3c57612f3b6129d5565b5b612f4886828701612af2565b925050604084013567ffffffffffffffff811115612f6957612f686129d5565b5b612f7586828701612af2565b9150509250925092565b60008060008060808587031215612f9957612f986129d0565b5b600085013567ffffffffffffffff811115612fb757612fb66129d5565b5b612fc387828801612af2565b945050602085013567ffffffffffffffff811115612fe457612fe36129d5565b5b612ff087828801612af2565b935050604061300187828801612b41565b925050606061301287828801612b41565b91505092959194509250565b60006020820190506130336000830184612c13565b92915050565b600060608201905061304e6000830186612c13565b81810360208301526130608185612c92565b905081810360408301526130748184612c92565b9050949350505050565b600080600060608486031215613097576130966129d0565b5b60006130a586828701612d85565b935050602084013567ffffffffffffffff8111156130c6576130c56129d5565b5b6130d286828701612af2565b925050604084013567ffffffffffffffff8111156130f3576130f26129d5565b5b6130ff86828701612af2565b9150509250925092565b600060608201905061311e6000830186612c13565b61312b6020830185612c22565b6131386040830184612c22565b949350505050565b60006020820190506131556000830184612c22565b92915050565b60008060408385031215613172576131716129d0565b5b600061318085828601612d85565b925050602061319185828601612b41565b9150509250929050565b60006060820190506131b06000830186612c22565b81810360208301526131c28185612c92565b905081810360408301526131d68184612c92565b9050949350505050565b600060608201905081810360008301526131fa8186612c92565b9050818103602083015261320e8185612c92565b905081810360408301526132228184612c92565b9050949350505050565b600080600080600080600060e0888a03121561324b5761324a6129d0565b5b600088013567ffffffffffffffff811115613269576132686129d5565b5b6132758a828b01612af2565b975050602088013567ffffffffffffffff811115613296576132956129d5565b5b6132a28a828b01612af2565b96505060406132b38a828b01612b41565b95505060606132c48a828b01612b41565b94505060806132d58a828b01612d85565b93505060a088013567ffffffffffffffff8111156132f6576132f56129d5565b5b6133028a828b01612af2565b92505060c06133138a828b01612b41565b91505092959891949750929550565b60008060408385031215613339576133386129d0565b5b600061334785828601612b41565b925050602061335885828601612b41565b9150509250929050565b60006020820190506133776000830184612c3d565b92915050565b7f4e487b7100000000000000000000000000000000000000000000000000000000600052602260045260246000fd5b600060028204905060018216806133c457607f821691505b6020821081036133d7576133d661337d565b5b50919050565b600081905092915050565b60006133f382612c4c565b6133fd81856133dd565b935061340d818560208601612c68565b80840191505092915050565b600061342582846133e8565b915081905092915050565b60008190508160005260206000209050919050565b60006020601f8301049050919050565b600082821b905092915050565b6000600883026134927fffffffffffffffffffffffffffffffffffffffffffffffffffffffffffffffff82613455565b61349c8683613455565b95508019841693508086168417925050509392505050565b6000819050919050565b60006134d96134d46134cf84612b20565b6134b4565b612b20565b9050919050565b6000819050919050565b6134f3836134be565b6135076134ff826134e0565b848454613462565b825550505050565b600090565b61351c61350f565b6135278184846134ea565b505050565b5b8181101561354b57613540600082613514565b60018101905061352d565b5050565b601f8211156135905761356181613430565b61356a84613445565b81016020851015613579578190505b61358d61358585613445565b83018261352c565b50505b505050565b600082821c905092915050565b60006135b360001984600802613595565b1980831691505092915050565b60006135cc83836135a2565b9150826002028217905092915050565b6135e582612c4c565b67ffffffffffffffff8111156135fe576135fd6129f5565b5b61360882546133ac565b61361382828561354f565b600060209050601f8311600181146136465760008415613634578287015190505b61363e85826135c0565b8655506136a6565b601f19841661365486613430565b60005b8281101561367c57848901518255600182019150602085019450602081019050613657565b868310156136995784890151613695601f8916826135a2565b8355505b6001600288020188555050505b505050505050565b7f74686973206c616e6420697320616c726561647920617669616c626c65000000600082015250565b60006136e4601d83612c57565b91506136ef826136ae565b602082019050919050565b60006020820190508181036000830152613713816136d7565b9050919050565b7f4e487b7100000000000000000000000000000000000000000000000000000000600052601160045260246000fd5b600061375482612b20565b91507fffffffffffffffffffffffffffffffffffffffffffffffffffffffffffffffff82036137865761378561371a565b5b600182019050919050565b7f74686973206c616e64206973206e6f7420666f722073616c6500000000000000600082015250565b60006137c7601983612c57565b91506137d282613791565b602082019050919050565b600060208201905081810360008301526137f6816137ba565b905091905056fea2646970667358221220ceadccb8b490f07ed61d60d402feb8baa484fdaa439b70e964440345d83a75af64736f6c63430008130033",
  "immutableReferences": {},
  "source": "pragma solidity >=0.4.25 <0.9.0;\r\ncontract lands{\r\n     struct Admin {\r\n          address adminAdress;\r\n          string adminName;\r\n          string area;     \r\n}\r\n//  \r\nstruct landDetails{\r\n     address owner;\r\n     address admin;\r\n     uint256 propertyPID;\r\n     uint256 surveynumb;\r\n     uint256 index;\r\n     bool registered;\r\n     bool makeAvialbel;\r\n    // string directorate;\r\n     string area;\r\n     //string register_date;\r\n     uint256 size_meter;\r\n     // string  boundryNorth;\r\n     // string  boundrySouth;\r\n     // string  boundryEast;\r\n     // string  boundryWestern;\r\n     uint256   noOfRequested;\r\n     //reqNo=>RequestDetails\r\n      mapping (uint=>RequestDetails)requests;\r\n}\r\n//   \r\nstruct UserProfile{\r\n     address useraddress;\r\n     string fullname;\r\n     // string gender;\r\n     string contact;\r\n     string email;\r\n    uint256 totalIndices;\r\n    uint256 requesIndices;\r\n    \r\n}\r\n//    \r\nstruct ownerOwns{\r\n     uint surveynumber;\r\n     string state;\r\n     string city;\r\n}\r\n//     \r\nstruct RequestedLands {\r\n     uint surveynumber;\r\n     string state;\r\n     string city;     \r\n}\r\n//  \r\nstruct RequestDetails {\r\n     address whoRequested;\r\n     uint reqIndex;\r\n}\r\n//string=>mapping (string=>mapping\r\nmapping(address => uint256[]) private ownerLandIds;//\r\n\r\n\r\nmapping (address => Admin) public admins;\r\nmapping (address => mapping (uint=>ownerOwns)) public ownerMapsProperty;\r\nmapping (address=>mapping (uint=>RequestedLands))public registeredland;\r\nmapping (string=>mapping(string=>mapping(uint256=>landDetails))) public landDetailsMap;\r\n\r\nmapping (address=>UserProfile) public userProfile;\r\n// //variable declartion\r\n //address public superAdmin;\r\n uint256 public totalAdmin=1;\r\nuint256 public totalIndices=1;\r\n// constructor (){\r\n//      superAdmin=msg.sender;     \r\n// }\r\nmodifier onlyAdmin() {\r\n     require(admins[msg.sender].adminAdress==msg.sender,\"only Admin can register land\");\r\n     _;\r\n}\r\n\r\n function getOwnerLandIds(address owner) public view returns (uint256) {\r\n        return userProfile[owner].totalIndices;\r\n    }\r\n\r\n\r\n// // \r\nfunction addAdmin(address _adminAddress,string memory _adminName,string memory _city)external {\r\n     Admin storage newAdmin=admins[_adminAddress];\r\n     totalAdmin++;\r\n     newAdmin.adminAdress=_adminAddress;\r\n     newAdmin.area=_city;\r\n     newAdmin.adminName=_adminName;     \r\n}//  \r\n// function IsAdmin()external view returns(bool) {\r\n//      if(admins[msg.sender]==msg.sender){\r\n//           return true;}\r\n//      else return false;     \r\n// }\r\n//  \r\nfunction registerLand(\r\n     //string memory _admin_name,\r\n     string memory _city,\r\n     string memory _state,\r\n     uint256 _propertyPID,\r\n     uint _surveynumber,\r\n     address _owner,\r\n    // string memory _directorate,\r\n     string memory _area, \r\n     uint256 _size_meter\r\n     // string memory _boundry_North,\r\n     // string memory  _boundry_South\r\n    //string memory _register_Date\r\n     //string memory _boundry_Western\r\n    ) external {\r\n     // require(keccak256(abi.encodePacked(admins[msg.sender].admin_name))==keccak256(abi.encodePacked(_admin_name))&&\r\n     // keccak256(abi.encodePacked(admins[msg.sender].city))==keccak256(abi.encodePacked(_city)),\"kkkkkkkk\")\r\n     // require(landDetailsMap[_state][_city][_surveynumber].registered==false,\"sssssss\");\r\n     landDetails storage newLandRegistry=landDetailsMap[_state][_city][_surveynumber];\r\n     ownerOwns storage newOwnerOwnes=ownerMapsProperty[_owner][userProfile[_owner].totalIndices];\r\n     newLandRegistry.owner=_owner;\r\n     newLandRegistry.admin=msg.sender;\r\n     newLandRegistry.propertyPID=_propertyPID;\r\n     newLandRegistry.surveynumb=_surveynumber;\r\n     newLandRegistry.index=userProfile[_owner].totalIndices;\r\n     newLandRegistry.registered=true;\r\n     newLandRegistry.makeAvialbel=false;\r\n   //  newLandRegistry.register_date=_register_Date;\r\n     // newLandRegistry.boundryNorth=_boundry_North;\r\n     //newLandRegistry.boundry_Western=_boundry_Western;\r\n     // newLandRegistry.boundrySouth=_boundry_South;\r\n     newLandRegistry.size_meter=_size_meter;\r\n     newLandRegistry.area=_area;\r\n     //newLandRegistry.directorate=_directorate;\r\n     newOwnerOwnes.surveynumber=_surveynumber;\r\n     newOwnerOwnes.state=_state;\r\n     newOwnerOwnes.city=_city;\r\n     userProfile[_owner].totalIndices++;}\r\n\r\n     //   \r\nfunction setUserProfile(string memory _fullName,string memory _email,string memory _contact)public {\r\n          UserProfile storage newUserProfile=userProfile[msg.sender];\r\n          newUserProfile.fullname=_fullName;\r\n          // newUserProfile.gender=_gender;\r\n          newUserProfile.email=_email;\r\n          newUserProfile.contact=_contact;\r\n\r\n     }\r\n//      //   \r\n     function MakePropertyAvailble(uint indexNo)external {\r\n          string memory state=ownerMapsProperty[msg.sender][indexNo].state;\r\n          string memory city=ownerMapsProperty[msg.sender][indexNo].city;\r\n          uint surveynumber=ownerMapsProperty[msg.sender][indexNo].surveynumber;\r\n          require(landDetailsMap[state][city][surveynumber].makeAvialbel==false,\"this land is already avialble\");\r\n          landDetailsMap[state][city][surveynumber].makeAvialbel=true;\r\n     }\r\n//      //   \r\n     function RequestForBuy(string memory _state,string memory _city,uint _surveynumber)external {\r\n          landDetails storage thisLandDetail=landDetailsMap[_state][_city][_surveynumber];\r\n          require(thisLandDetail.makeAvialbel==true,\"this land is not for sale\");\r\n          uint req_serialNum=thisLandDetail.noOfRequested;\r\n          thisLandDetail.requests[req_serialNum].whoRequested=msg.sender;\r\n          thisLandDetail.requests[req_serialNum].reqIndex=userProfile[msg.sender].requesIndices;\r\n          thisLandDetail.noOfRequested++;\r\n          //adding requseted land to user2 profile\r\n          RequestedLands storage newRequestedLands=registeredland[msg.sender][userProfile[msg.sender].requesIndices];\r\n          newRequestedLands.surveynumber=_surveynumber;\r\n          newRequestedLands.state=_state;\r\n          newRequestedLands.city=_city;\r\n          userProfile[msg.sender].requesIndices++;}\r\n      \r\n          \r\n//      //    \r\n     function AcceptRequest(uint _index,uint _reqNo)external payable {\r\n          uint _surveyNo=ownerMapsProperty[msg.sender][_index].surveynumber;\r\n          string memory _state=ownerMapsProperty[msg.sender][_index].state;\r\n          string memory _city=ownerMapsProperty[msg.sender][_index].city;\r\n          //updating landDetails\r\n          address newOwner=landDetailsMap[_state][_city][_surveyNo].requests[_reqNo].whoRequested;\r\n          //uint newOwner_reqIndex=landDetailsMap[_state][_city][_surveyNo].requests[_reqNo].reqIndex;\r\n        uint noOfReq=landDetailsMap[_state][_city][_surveyNo].noOfRequested;\r\n   //deleting reqested land from all requested And removing all incoming requests\r\n   for(uint i=0;i<noOfReq;i++){\r\n     address requesterAddr=landDetailsMap[_state][_city][_surveyNo].requests[i].whoRequested;\r\n     uint requester_reqIndex=landDetailsMap[_state][_city][_surveyNo].requests[i].reqIndex;\r\n     delete registeredland[requesterAddr][requester_reqIndex];\r\n     delete landDetailsMap[_state][_city][_surveyNo].requests[i];\r\n   }\r\n   landDetailsMap[_state][_city][_surveyNo].owner=newOwner;\r\n   landDetailsMap[_state][_city][_surveyNo].makeAvialbel=false;\r\n   landDetailsMap[_state][_city][_surveyNo].noOfRequested=0;\r\n   //deleting property from user ownermapProperty\r\n   delete ownerMapsProperty[msg.sender][_index];\r\n   payable(msg.sender).transfer(2 ether);\r\n   //   ( )\r\n     \r\nuint newOwnerTotProp=userProfile[newOwner].totalIndices;\r\nownerOwns storage newOwnerOwnes=ownerMapsProperty[newOwner][newOwnerTotProp];\r\nnewOwnerOwnes.surveynumber=_surveyNo;\r\nnewOwnerOwnes.state=_state;\r\nnewOwnerOwnes.city=_city;\r\nlandDetailsMap[_state][_city][_surveyNo].index=newOwnerTotProp;\r\nuserProfile[newOwner].totalIndices++;\r\n     }\r\n\r\n     //   \r\n     function getLandDetails(string memory _state,string memory _city,uint _surveyNo)external view returns(address,uint256,uint) {\r\n          address owner=landDetailsMap[_state][_city][_surveyNo].owner;\r\n          uint256 propertyid=landDetailsMap[_state][_city][_surveyNo].propertyPID;\r\n          uint index=landDetailsMap[_state][_city][_surveyNo].index;\r\n          return(owner,propertyid,index);\r\n          \r\n     }\r\n     //\r\n     function getRequestcnt_proId(string memory _state,string memory _city,uint _surveyNo)external view returns(uint,uint256) {\r\n          uint _noOfRequestes=landDetailsMap[_state][_city][_surveyNo].noOfRequested;\r\n          uint256 _propertyId=landDetailsMap[_state][_city][_surveyNo].propertyPID;\r\n          return(_noOfRequestes,_propertyId);\r\n          \r\n     }\r\n\r\n     //        \r\nfunction getRequesterDetail(string memory _state,string memory _city,uint _surveyNo,uint _reqIndex)external view returns(address) {\r\n     address requester=landDetailsMap[_state][_city][_surveyNo].requests[_reqIndex].whoRequested;\r\n     return(requester);\r\n     \r\n}\r\n//      \r\nfunction IsAvailable(string memory _state,string memory _city,uint _surveyNo)external view returns(bool) {\r\nbool available=landDetailsMap[_state][_city][_surveyNo].makeAvialbel;\r\nreturn(available);     \r\n}\r\n//      \r\nfunction getownerOwns(uint index)external view returns(string memory,string memory,uint) {\r\nuint surveyNo=ownerMapsProperty[msg.sender][index].surveynumber;\r\nstring memory state=ownerMapsProperty[msg.sender][index].state;\r\nstring memory city=registeredland[msg.sender][index].city;\r\nreturn(state,city,surveyNo);     \r\n}\r\n// ///////          \r\nfunction getRequestedLands(uint index)external view returns(string memory,string memory,uint) {\r\nuint surveyNo=ownerMapsProperty[msg.sender][index].surveynumber;\r\nstring memory state=ownerMapsProperty[msg.sender][index].state;\r\nstring memory city=registeredland[msg.sender][index].city;\r\nreturn(state,city,surveyNo);     \r\n}\r\n//    \r\nfunction getUserProfile()external view returns(string memory,string memory,string memory) {\r\nstring memory contact=userProfile[msg.sender].contact;\r\nstring memory fullname=userProfile[msg.sender].fullname;\r\nstring memory email=userProfile[msg.sender].email;\r\n// string memory gender=userProfile[msg.sender].gender;\r\nreturn(fullname,email,contact);\r\n\r\n}\r\n\r\n     \r\n}\r\n\r\n\r\n\r\n\r\n",
  "sourcePath": "C:\\Users\\PC\\Desktop\\solidity\\truffle\\contracts\\lands.sol",
  "compiler": {
    "name": "solc",
    "version": "0.8.19+commit.7dd6d404.Emscripten.clang"
  },
  "schemaVersion": "3.4.13",
  "updatedAt": "2023-10-20T07:24:29.429Z",
  "networkType": "ethereum",
  "devdoc": {
    "kind": "dev",
    "methods": {},
    "version": 1
  },
  "userdoc": {
    "kind": "user",
    "methods": {},
    "version": 1
  }
}