{
  "contractName": "lands",
  "abi": [
    {
      "inputs": [
        {
          "internalType": "address",
          "name": "",
          "type": "address"
        }
      ],
      "name": "admins",
      "outputs": [
        {
          "internalType": "address",
          "name": "adminAdress",
          "type": "address"
        },
        {
          "internalType": "string",
          "name": "adminName",
          "type": "string"
        },
        {
          "internalType": "string",
          "name": "area",
          "type": "string"
        }
      ],
      "stateMutability": "view",
      "type": "function",
      "constant": true
    },
    {
      "inputs": [],
      "name": "indexs",
      "outputs": [
        {
          "internalType": "uint256",
          "name": "",
          "type": "uint256"
        }
      ],
      "stateMutability": "view",
      "type": "function",
      "constant": true
    },
    {
      "inputs": [
        {
          "internalType": "address",
          "name": "",
          "type": "address"
        }
      ],
      "name": "landDetailsMap",
      "outputs": [
        {
          "internalType": "address",
          "name": "owner",
          "type": "address"
        },
        {
          "internalType": "address",
          "name": "admin",
          "type": "address"
        },
        {
          "internalType": "uint256",
          "name": "propertyPID",
          "type": "uint256"
        },
        {
          "internalType": "uint256",
          "name": "surveynumb",
          "type": "uint256"
        },
        {
          "internalType": "uint256",
          "name": "index",
          "type": "uint256"
        },
        {
          "internalType": "bool",
          "name": "registered",
          "type": "bool"
        },
        {
          "internalType": "bool",
          "name": "makeAvialbel",
          "type": "bool"
        },
        {
          "internalType": "string",
          "name": "area",
          "type": "string"
        },
        {
          "internalType": "uint256",
          "name": "size_meter",
          "type": "uint256"
        },
        {
          "internalType": "uint256",
          "name": "noOfRequested",
          "type": "uint256"
        }
      ],
      "stateMutability": "view",
      "type": "function",
      "constant": true
    },
    {
      "inputs": [
        {
          "internalType": "uint256",
          "name": "",
          "type": "uint256"
        }
      ],
      "name": "landForSale",
      "outputs": [
        {
          "internalType": "uint256",
          "name": "surveynumber",
          "type": "uint256"
        },
        {
          "internalType": "string",
          "name": "state",
          "type": "string"
        },
        {
          "internalType": "string",
          "name": "city",
          "type": "string"
        }
      ],
      "stateMutability": "view",
      "type": "function",
      "constant": true
    },
    {
      "inputs": [
        {
          "internalType": "address",
          "name": "",
          "type": "address"
        }
      ],
      "name": "ownerMapsProperty",
      "outputs": [
        {
          "internalType": "uint256",
          "name": "surveynumber",
          "type": "uint256"
        },
        {
          "internalType": "string",
          "name": "state",
          "type": "string"
        },
        {
          "internalType": "string",
          "name": "city",
          "type": "string"
        }
      ],
      "stateMutability": "view",
      "type": "function",
      "constant": true
    },
    {
      "inputs": [
        {
          "internalType": "address",
          "name": "",
          "type": "address"
        }
      ],
      "name": "requests1",
      "outputs": [
        {
          "internalType": "uint256",
          "name": "surveynumber",
          "type": "uint256"
        },
        {
          "internalType": "string",
          "name": "state",
          "type": "string"
        },
        {
          "internalType": "string",
          "name": "city",
          "type": "string"
        }
      ],
      "stateMutability": "view",
      "type": "function",
      "constant": true
    },
    {
      "inputs": [],
      "name": "totalAdmin",
      "outputs": [
        {
          "internalType": "uint256",
          "name": "",
          "type": "uint256"
        }
      ],
      "stateMutability": "view",
      "type": "function",
      "constant": true
    },
    {
      "inputs": [],
      "name": "totalIndices",
      "outputs": [
        {
          "internalType": "uint256",
          "name": "",
          "type": "uint256"
        }
      ],
      "stateMutability": "view",
      "type": "function",
      "constant": true
    },
    {
      "inputs": [
        {
          "internalType": "address",
          "name": "",
          "type": "address"
        }
      ],
      "name": "userProfile",
      "outputs": [
        {
          "internalType": "address",
          "name": "useraddress",
          "type": "address"
        },
        {
          "internalType": "string",
          "name": "fullname",
          "type": "string"
        },
        {
          "internalType": "string",
          "name": "contact",
          "type": "string"
        },
        {
          "internalType": "string",
          "name": "email",
          "type": "string"
        },
        {
          "internalType": "uint256",
          "name": "totalIndices",
          "type": "uint256"
        },
        {
          "internalType": "uint256",
          "name": "requesIndices",
          "type": "uint256"
        }
      ],
      "stateMutability": "view",
      "type": "function",
      "constant": true
    },
    {
      "inputs": [
        {
          "internalType": "address",
          "name": "_adminAddress",
          "type": "address"
        },
        {
          "internalType": "string",
          "name": "_adminName",
          "type": "string"
        },
        {
          "internalType": "string",
          "name": "_city",
          "type": "string"
        }
      ],
      "name": "addAdmin",
      "outputs": [],
      "stateMutability": "nonpayable",
      "type": "function"
    },
    {
      "inputs": [
        {
          "internalType": "string",
          "name": "_city",
          "type": "string"
        },
        {
          "internalType": "string",
          "name": "_state",
          "type": "string"
        },
        {
          "internalType": "uint256",
          "name": "_propertyPID",
          "type": "uint256"
        },
        {
          "internalType": "uint256",
          "name": "_surveynumber",
          "type": "uint256"
        },
        {
          "internalType": "address",
          "name": "_owner",
          "type": "address"
        },
        {
          "internalType": "string",
          "name": "_area",
          "type": "string"
        },
        {
          "internalType": "uint256",
          "name": "_size_meter",
          "type": "uint256"
        }
      ],
      "name": "registerLand",
      "outputs": [],
      "stateMutability": "nonpayable",
      "type": "function"
    },
    {
      "inputs": [
        {
          "internalType": "address",
          "name": "address1",
          "type": "address"
        },
        {
          "internalType": "string",
          "name": "_fullName",
          "type": "string"
        },
        {
          "internalType": "string",
          "name": "_email",
          "type": "string"
        },
        {
          "internalType": "string",
          "name": "_contact",
          "type": "string"
        }
      ],
      "name": "setUserProfile",
      "outputs": [],
      "stateMutability": "nonpayable",
      "type": "function"
    },
    {
      "inputs": [
        {
          "internalType": "address",
          "name": "address1",
          "type": "address"
        }
      ],
      "name": "MakePropertyAvailble",
      "outputs": [],
      "stateMutability": "nonpayable",
      "type": "function"
    },
    {
      "inputs": [],
      "name": "getLandsale",
      "outputs": [
        {
          "internalType": "string",
          "name": "",
          "type": "string"
        },
        {
          "internalType": "string",
          "name": "",
          "type": "string"
        },
        {
          "internalType": "uint256",
          "name": "",
          "type": "uint256"
        }
      ],
      "stateMutability": "view",
      "type": "function",
      "constant": true
    },
    {
      "inputs": [],
      "name": "getLRequseted",
      "outputs": [
        {
          "internalType": "address",
          "name": "",
          "type": "address"
        },
        {
          "internalType": "string",
          "name": "",
          "type": "string"
        },
        {
          "internalType": "string",
          "name": "",
          "type": "string"
        },
        {
          "internalType": "uint256",
          "name": "",
          "type": "uint256"
        }
      ],
      "stateMutability": "view",
      "type": "function",
      "constant": true
    },
    {
      "inputs": [
        {
          "internalType": "address",
          "name": "address1",
          "type": "address"
        },
        {
          "internalType": "string",
          "name": "_state",
          "type": "string"
        },
        {
          "internalType": "string",
          "name": "_city",
          "type": "string"
        },
        {
          "internalType": "uint256",
          "name": "_surveynumber",
          "type": "uint256"
        }
      ],
      "name": "RequestForBuy",
      "outputs": [],
      "stateMutability": "nonpayable",
      "type": "function"
    },
    {
      "inputs": [
        {
          "internalType": "address",
          "name": "address1",
          "type": "address"
        },
        {
          "internalType": "uint256",
          "name": "_reqNo",
          "type": "uint256"
        }
      ],
      "name": "acceptRequest",
      "outputs": [],
      "stateMutability": "payable",
      "type": "function",
      "payable": true
    },
    {
      "inputs": [
        {
          "internalType": "address",
          "name": "address1",
          "type": "address"
        }
      ],
      "name": "getLandDetails",
      "outputs": [
        {
          "internalType": "address",
          "name": "",
          "type": "address"
        },
        {
          "internalType": "uint256",
          "name": "",
          "type": "uint256"
        },
        {
          "internalType": "uint256",
          "name": "",
          "type": "uint256"
        }
      ],
      "stateMutability": "view",
      "type": "function",
      "constant": true
    },
    {
      "inputs": [
        {
          "internalType": "address",
          "name": "address1",
          "type": "address"
        }
      ],
      "name": "getownerOwns",
      "outputs": [
        {
          "internalType": "string",
          "name": "",
          "type": "string"
        },
        {
          "internalType": "string",
          "name": "",
          "type": "string"
        },
        {
          "internalType": "uint256",
          "name": "",
          "type": "uint256"
        }
      ],
      "stateMutability": "view",
      "type": "function",
      "constant": true
    },
    {
      "inputs": [
        {
          "internalType": "address",
          "name": "address1",
          "type": "address"
        }
      ],
      "name": "getUserProfile",
      "outputs": [
        {
          "internalType": "string",
          "name": "",
          "type": "string"
        },
        {
          "internalType": "string",
          "name": "",
          "type": "string"
        },
        {
          "internalType": "string",
          "name": "",
          "type": "string"
        }
      ],
      "stateMutability": "view",
      "type": "function",
      "constant": true
    }
  ],
  "bytecode": "0x608060405260016007556001600855600060095534801561001f57600080fd5b506133618061002f6000396000f3fe60806040526004361061011f5760003560e01c806370eabb14116100a0578063892ab80f11610064578063892ab80f1461042f578063987ee15614610458578063a00f841414610497578063a5d4b31e146104c0578063cdc23c23146104ff5761011f565b806370eabb141461032b5780637108479d1461036a5780637cd5fcb2146103a95780638037fac5146103e85780638616abd8146104135761011f565b80634039ae9b116100e75780634039ae9b14610246578063429b62e51461026f57806350bd2e6f146102ae5780635babf5ef146102d757806364319e33146103005761011f565b806309349970146101245780631c8e8962146101525780631e47be4c146101945780633134e3ff146101c1578063320d6b2614610200575b600080fd5b34801561013057600080fd5b5061013961052a565b6040516101499493929190612688565b60405180910390f35b34801561015e57600080fd5b506101796004803603810190610174919061271b565b6106c8565b60405161018b96959493929190612748565b60405180910390f35b3480156101a057600080fd5b506101a96108bc565b6040516101b8939291906127be565b60405180910390f35b3480156101cd57600080fd5b506101e860048036038101906101e3919061282f565b610a32565b6040516101f79392919061285c565b60405180910390f35b34801561020c57600080fd5b506102276004803603810190610222919061271b565b610b6c565b60405161023d9a999897969594939291906128bc565b60405180910390f35b34801561025257600080fd5b5061026d6004803603810190610268919061271b565b610ca2565b005b34801561027b57600080fd5b506102966004803603810190610291919061271b565b610fdb565b6040516102a59392919061295f565b60405180910390f35b3480156102ba57600080fd5b506102d560048036038101906102d09190612ad9565b611135565b005b3480156102e357600080fd5b506102fe60048036038101906102f99190612b78565b611400565b005b34801561030c57600080fd5b506103156114c8565b6040516103229190612c03565b60405180910390f35b34801561033757600080fd5b50610352600480360381019061034d919061271b565b6114ce565b6040516103619392919061285c565b60405180910390f35b34801561037657600080fd5b50610391600480360381019061038c919061271b565b611608565b6040516103a093929190612c1e565b60405180910390f35b3480156103b557600080fd5b506103d060048036038101906103cb919061271b565b611714565b6040516103df9392919061285c565b60405180910390f35b3480156103f457600080fd5b506103fd61184e565b60405161040a9190612c03565b60405180910390f35b61042d60048036038101906104289190612c55565b611854565b005b34801561043b57600080fd5b5061045660048036038101906104519190612c95565b611e49565b005b34801561046457600080fd5b5061047f600480360381019061047a919061271b565b612097565b60405161048e93929190612d8b565b60405180910390f35b3480156104a357600080fd5b506104be60048036038101906104b99190612dd7565b61231c565b005b3480156104cc57600080fd5b506104e760048036038101906104e2919061271b565b61239c565b6040516104f6939291906127be565b60405180910390f35b34801561050b57600080fd5b50610514612598565b6040516105219190612c03565b60405180910390f35b600060608060008060046000808152602001908152602001600020600001549050600060046000808152602001908152602001600020600101805461056e90612ec1565b80601f016020809104026020016040519081016040528092919081815260200182805461059a90612ec1565b80156105e75780601f106105bc576101008083540402835291602001916105e7565b820191906000526020600020905b8154815290600101906020018083116105ca57829003601f168201915b50505050509050600060046000808152602001908152602001600020600201805461061190612ec1565b80601f016020809104026020016040519081016040528092919081815260200182805461063d90612ec1565b801561068a5780601f1061065f5761010080835404028352916020019161068a565b820191906000526020600020905b81548152906001019060200180831161066d57829003601f168201915b50505050509050600a60009054906101000a900473ffffffffffffffffffffffffffffffffffffffff16828285965096509650965050505090919293565b60066020528060005260406000206000915090508060000160009054906101000a900473ffffffffffffffffffffffffffffffffffffffff169080600101805461071190612ec1565b80601f016020809104026020016040519081016040528092919081815260200182805461073d90612ec1565b801561078a5780601f1061075f5761010080835404028352916020019161078a565b820191906000526020600020905b81548152906001019060200180831161076d57829003601f168201915b50505050509080600201805461079f90612ec1565b80601f01602080910402602001604051908101604052809291908181526020018280546107cb90612ec1565b80156108185780601f106107ed57610100808354040283529160200191610818565b820191906000526020600020905b8154815290600101906020018083116107fb57829003601f168201915b50505050509080600301805461082d90612ec1565b80601f016020809104026020016040519081016040528092919081815260200182805461085990612ec1565b80156108a65780601f1061087b576101008083540402835291602001916108a6565b820191906000526020600020905b81548152906001019060200180831161088957829003601f168201915b5050505050908060040154908060050154905086565b6060806000806004600080815260200190815260200160002060000154905060006004600080815260200190815260200160002060010180546108fe90612ec1565b80601f016020809104026020016040519081016040528092919081815260200182805461092a90612ec1565b80156109775780601f1061094c57610100808354040283529160200191610977565b820191906000526020600020905b81548152906001019060200180831161095a57829003601f168201915b5050505050905060006004600080815260200190815260200160002060020180546109a190612ec1565b80601f01602080910402602001604051908101604052809291908181526020018280546109cd90612ec1565b8015610a1a5780601f106109ef57610100808354040283529160200191610a1a565b820191906000526020600020905b8154815290600101906020018083116109fd57829003601f168201915b50505050509050818184955095509550505050909192565b6004602052806000526040600020600091509050806000015490806001018054610a5b90612ec1565b80601f0160208091040260200160405190810160405280929190818152602001828054610a8790612ec1565b8015610ad45780601f10610aa957610100808354040283529160200191610ad4565b820191906000526020600020905b815481529060010190602001808311610ab757829003601f168201915b505050505090806002018054610ae990612ec1565b80601f0160208091040260200160405190810160405280929190818152602001828054610b1590612ec1565b8015610b625780601f10610b3757610100808354040283529160200191610b62565b820191906000526020600020905b815481529060010190602001808311610b4557829003601f168201915b5050505050905083565b60036020528060005260406000206000915090508060000160009054906101000a900473ffffffffffffffffffffffffffffffffffffffff16908060010160009054906101000a900473ffffffffffffffffffffffffffffffffffffffff16908060020154908060030154908060040154908060050160009054906101000a900460ff16908060050160019054906101000a900460ff1690806006018054610c1390612ec1565b80601f0160208091040260200160405190810160405280929190818152602001828054610c3f90612ec1565b8015610c8c5780601f10610c6157610100808354040283529160200191610c8c565b820191906000526020600020905b815481529060010190602001808311610c6f57829003601f168201915b505050505090806007015490806008015490508a565b6000600260008373ffffffffffffffffffffffffffffffffffffffff1673ffffffffffffffffffffffffffffffffffffffff1681526020019081526020016000206001018054610cf190612ec1565b80601f0160208091040260200160405190810160405280929190818152602001828054610d1d90612ec1565b8015610d6a5780601f10610d3f57610100808354040283529160200191610d6a565b820191906000526020600020905b815481529060010190602001808311610d4d57829003601f168201915b505050505090506000600260008473ffffffffffffffffffffffffffffffffffffffff1673ffffffffffffffffffffffffffffffffffffffff1681526020019081526020016000206002018054610dc090612ec1565b80601f0160208091040260200160405190810160405280929190818152602001828054610dec90612ec1565b8015610e395780601f10610e0e57610100808354040283529160200191610e39565b820191906000526020600020905b815481529060010190602001808311610e1c57829003601f168201915b505050505090506000600260008573ffffffffffffffffffffffffffffffffffffffff1673ffffffffffffffffffffffffffffffffffffffff16815260200190815260200160002060000154905060001515600360008673ffffffffffffffffffffffffffffffffffffffff1673ffffffffffffffffffffffffffffffffffffffff16815260200190815260200160002060050160019054906101000a900460ff16151514610f1d576040517f08c379a0000000000000000000000000000000000000000000000000000000008152600401610f1490612f3e565b60405180910390fd5b6001600360008673ffffffffffffffffffffffffffffffffffffffff1673ffffffffffffffffffffffffffffffffffffffff16815260200190815260200160002060050160016101000a81548160ff021916908315150217905550600060046000808152602001908152602001600020905082816002019081610fa0919061310a565b5083816001019081610fb2919061310a565b5081816000018190555060096000815480929190610fcf9061320b565b91905055505050505050565b60016020528060005260406000206000915090508060000160009054906101000a900473ffffffffffffffffffffffffffffffffffffffff169080600101805461102490612ec1565b80601f016020809104026020016040519081016040528092919081815260200182805461105090612ec1565b801561109d5780601f106110725761010080835404028352916020019161109d565b820191906000526020600020905b81548152906001019060200180831161108057829003601f168201915b5050505050908060020180546110b290612ec1565b80601f01602080910402602001604051908101604052809291908181526020018280546110de90612ec1565b801561112b5780601f106111005761010080835404028352916020019161112b565b820191906000526020600020905b81548152906001019060200180831161110e57829003601f168201915b5050505050905083565b6000600360008673ffffffffffffffffffffffffffffffffffffffff1673ffffffffffffffffffffffffffffffffffffffff1681526020019081526020016000209050600115158160050160019054906101000a900460ff161515146111d0576040517f08c379a00000000000000000000000000000000000000000000000000000000081526004016111c79061329f565b60405180910390fd5b6000816008015490508582600901600083815260200190815260200160002060000160006101000a81548173ffffffffffffffffffffffffffffffffffffffff021916908373ffffffffffffffffffffffffffffffffffffffff160217905550600660008773ffffffffffffffffffffffffffffffffffffffff1673ffffffffffffffffffffffffffffffffffffffff16815260200190815260200160002060050154826009016000838152602001908152602001600020600101819055508160080160008154809291906112a49061320b565b91905055506000600560008873ffffffffffffffffffffffffffffffffffffffff1673ffffffffffffffffffffffffffffffffffffffff168152602001908152602001600020905083816000018190555085816001019081611306919061310a565b5084816002019081611318919061310a565b5086600a60006101000a81548173ffffffffffffffffffffffffffffffffffffffff021916908373ffffffffffffffffffffffffffffffffffffffff160217905550600660008873ffffffffffffffffffffffffffffffffffffffff1673ffffffffffffffffffffffffffffffffffffffff16815260200190815260200160002060050160008154809291906113ad9061320b565b91905055506000600460008081526020019081526020016000209050858160020190816113da919061310a565b50868160010190816113ec919061310a565b508481600001819055505050505050505050565b6000600160008573ffffffffffffffffffffffffffffffffffffffff1673ffffffffffffffffffffffffffffffffffffffff1681526020019081526020016000209050600760008154809291906114569061320b565b9190505550838160000160006101000a81548173ffffffffffffffffffffffffffffffffffffffff021916908373ffffffffffffffffffffffffffffffffffffffff160217905550818160020190816114af919061310a565b50828160010190816114c1919061310a565b5050505050565b60075481565b60056020528060005260406000206000915090508060000154908060010180546114f790612ec1565b80601f016020809104026020016040519081016040528092919081815260200182805461152390612ec1565b80156115705780601f1061154557610100808354040283529160200191611570565b820191906000526020600020905b81548152906001019060200180831161155357829003601f168201915b50505050509080600201805461158590612ec1565b80601f01602080910402602001604051908101604052809291908181526020018280546115b190612ec1565b80156115fe5780601f106115d3576101008083540402835291602001916115fe565b820191906000526020600020905b8154815290600101906020018083116115e157829003601f168201915b5050505050905083565b600080600080600360008673ffffffffffffffffffffffffffffffffffffffff1673ffffffffffffffffffffffffffffffffffffffff16815260200190815260200160002060000160009054906101000a900473ffffffffffffffffffffffffffffffffffffffff1690506000600360008773ffffffffffffffffffffffffffffffffffffffff1673ffffffffffffffffffffffffffffffffffffffff1681526020019081526020016000206002015490506000600360008873ffffffffffffffffffffffffffffffffffffffff1673ffffffffffffffffffffffffffffffffffffffff1681526020019081526020016000206004015490508282829550955095505050509193909250565b600260205280600052604060002060009150905080600001549080600101805461173d90612ec1565b80601f016020809104026020016040519081016040528092919081815260200182805461176990612ec1565b80156117b65780601f1061178b576101008083540402835291602001916117b6565b820191906000526020600020905b81548152906001019060200180831161179957829003601f168201915b5050505050908060020180546117cb90612ec1565b80601f01602080910402602001604051908101604052809291908181526020018280546117f790612ec1565b80156118445780601f1061181957610100808354040283529160200191611844565b820191906000526020600020905b81548152906001019060200180831161182757829003601f168201915b5050505050905083565b60085481565b3373ffffffffffffffffffffffffffffffffffffffff16600160003373ffffffffffffffffffffffffffffffffffffffff1673ffffffffffffffffffffffffffffffffffffffff16815260200190815260200160002060000160009054906101000a900473ffffffffffffffffffffffffffffffffffffffff1673ffffffffffffffffffffffffffffffffffffffff1614611924576040517f08c379a000000000000000000000000000000000000000000000000000000000815260040161191b9061330b565b60405180910390fd5b6000600360008473ffffffffffffffffffffffffffffffffffffffff1673ffffffffffffffffffffffffffffffffffffffff168152602001908152602001600020600901600083815260200190815260200160002060000160009054906101000a900473ffffffffffffffffffffffffffffffffffffffff1690506000600260008573ffffffffffffffffffffffffffffffffffffffff1673ffffffffffffffffffffffffffffffffffffffff16815260200190815260200160002060010180546119ee90612ec1565b80601f0160208091040260200160405190810160405280929190818152602001828054611a1a90612ec1565b8015611a675780601f10611a3c57610100808354040283529160200191611a67565b820191906000526020600020905b815481529060010190602001808311611a4a57829003601f168201915b505050505090506000600260008673ffffffffffffffffffffffffffffffffffffffff1673ffffffffffffffffffffffffffffffffffffffff1681526020019081526020016000206002018054611abd90612ec1565b80601f0160208091040260200160405190810160405280929190818152602001828054611ae990612ec1565b8015611b365780601f10611b0b57610100808354040283529160200191611b36565b820191906000526020600020905b815481529060010190602001808311611b1957829003601f168201915b505050505090506000600260008773ffffffffffffffffffffffffffffffffffffffff1673ffffffffffffffffffffffffffffffffffffffff16815260200190815260200160002060000154905083600360008873ffffffffffffffffffffffffffffffffffffffff1673ffffffffffffffffffffffffffffffffffffffff16815260200190815260200160002060000160006101000a81548173ffffffffffffffffffffffffffffffffffffffff021916908373ffffffffffffffffffffffffffffffffffffffff1602179055506000600360008873ffffffffffffffffffffffffffffffffffffffff1673ffffffffffffffffffffffffffffffffffffffff16815260200190815260200160002060050160016101000a81548160ff0219169083151502179055506000600360008873ffffffffffffffffffffffffffffffffffffffff1673ffffffffffffffffffffffffffffffffffffffff168152602001908152602001600020600801819055506000600260008673ffffffffffffffffffffffffffffffffffffffff1673ffffffffffffffffffffffffffffffffffffffff168152602001908152602001600020905081816000018190555083816001019081611d05919061310a565b5082816002019081611d17919061310a565b50600660008673ffffffffffffffffffffffffffffffffffffffff1673ffffffffffffffffffffffffffffffffffffffff16815260200190815260200160002060040154600360008973ffffffffffffffffffffffffffffffffffffffff1673ffffffffffffffffffffffffffffffffffffffff16815260200190815260200160002060040181905550600660008673ffffffffffffffffffffffffffffffffffffffff1673ffffffffffffffffffffffffffffffffffffffff1681526020019081526020016000206004016000815480929190611df49061320b565b91905055503373ffffffffffffffffffffffffffffffffffffffff166108fc349081150290604051600060405180830381858888f19350505050158015611e3f573d6000803e3d6000fd5b5050505050505050565b6000600360008573ffffffffffffffffffffffffffffffffffffffff1673ffffffffffffffffffffffffffffffffffffffff16815260200190815260200160002090506000600260008673ffffffffffffffffffffffffffffffffffffffff1673ffffffffffffffffffffffffffffffffffffffff1681526020019081526020016000209050848260000160006101000a81548173ffffffffffffffffffffffffffffffffffffffff021916908373ffffffffffffffffffffffffffffffffffffffff160217905550338260010160006101000a81548173ffffffffffffffffffffffffffffffffffffffff021916908373ffffffffffffffffffffffffffffffffffffffff160217905550868260020181905550858260030181905550600660008673ffffffffffffffffffffffffffffffffffffffff1673ffffffffffffffffffffffffffffffffffffffff16815260200190815260200160002060040154826004018190555060018260050160006101000a81548160ff02191690831515021790555060008260050160016101000a81548160ff02191690831515021790555082826007018190555083826006019081612006919061310a565b5085816000018190555087816001019081612021919061310a565b5088816002019081612033919061310a565b50600660008673ffffffffffffffffffffffffffffffffffffffff1673ffffffffffffffffffffffffffffffffffffffff16815260200190815260200160002060040160008154809291906120879061320b565b9190505550505050505050505050565b60608060606000600660008673ffffffffffffffffffffffffffffffffffffffff1673ffffffffffffffffffffffffffffffffffffffff16815260200190815260200160002060020180546120eb90612ec1565b80601f016020809104026020016040519081016040528092919081815260200182805461211790612ec1565b80156121645780601f1061213957610100808354040283529160200191612164565b820191906000526020600020905b81548152906001019060200180831161214757829003601f168201915b505050505090506000600660008773ffffffffffffffffffffffffffffffffffffffff1673ffffffffffffffffffffffffffffffffffffffff16815260200190815260200160002060010180546121ba90612ec1565b80601f01602080910402602001604051908101604052809291908181526020018280546121e690612ec1565b80156122335780601f1061220857610100808354040283529160200191612233565b820191906000526020600020905b81548152906001019060200180831161221657829003601f168201915b505050505090506000600660008873ffffffffffffffffffffffffffffffffffffffff1673ffffffffffffffffffffffffffffffffffffffff168152602001908152602001600020600301805461228990612ec1565b80601f01602080910402602001604051908101604052809291908181526020018280546122b590612ec1565b80156123025780601f106122d757610100808354040283529160200191612302565b820191906000526020600020905b8154815290600101906020018083116122e557829003601f168201915b505050505090508181849550955095505050509193909250565b6000600660008673ffffffffffffffffffffffffffffffffffffffff1673ffffffffffffffffffffffffffffffffffffffff168152602001908152602001600020905083816001019081612370919061310a565b5082816003019081612382919061310a565b5081816002019081612394919061310a565b505050505050565b606080600080600260008673ffffffffffffffffffffffffffffffffffffffff1673ffffffffffffffffffffffffffffffffffffffff1681526020019081526020016000206000015490506000600260008773ffffffffffffffffffffffffffffffffffffffff1673ffffffffffffffffffffffffffffffffffffffff168152602001908152602001600020600101805461243690612ec1565b80601f016020809104026020016040519081016040528092919081815260200182805461246290612ec1565b80156124af5780601f10612484576101008083540402835291602001916124af565b820191906000526020600020905b81548152906001019060200180831161249257829003601f168201915b505050505090506000600260008873ffffffffffffffffffffffffffffffffffffffff1673ffffffffffffffffffffffffffffffffffffffff168152602001908152602001600020600201805461250590612ec1565b80601f016020809104026020016040519081016040528092919081815260200182805461253190612ec1565b801561257e5780601f106125535761010080835404028352916020019161257e565b820191906000526020600020905b81548152906001019060200180831161256157829003601f168201915b505050505090508181849550955095505050509193909250565b60095481565b600073ffffffffffffffffffffffffffffffffffffffff82169050919050565b60006125c98261259e565b9050919050565b6125d9816125be565b82525050565b600081519050919050565b600082825260208201905092915050565b60005b838110156126195780820151818401526020810190506125fe565b60008484015250505050565b6000601f19601f8301169050919050565b6000612641826125df565b61264b81856125ea565b935061265b8185602086016125fb565b61266481612625565b840191505092915050565b6000819050919050565b6126828161266f565b82525050565b600060808201905061269d60008301876125d0565b81810360208301526126af8186612636565b905081810360408301526126c38185612636565b90506126d26060830184612679565b95945050505050565b6000604051905090565b600080fd5b600080fd5b6126f8816125be565b811461270357600080fd5b50565b600081359050612715816126ef565b92915050565b600060208284031215612731576127306126e5565b5b600061273f84828501612706565b91505092915050565b600060c08201905061275d60008301896125d0565b818103602083015261276f8188612636565b905081810360408301526127838187612636565b905081810360608301526127978186612636565b90506127a66080830185612679565b6127b360a0830184612679565b979650505050505050565b600060608201905081810360008301526127d88186612636565b905081810360208301526127ec8185612636565b90506127fb6040830184612679565b949350505050565b61280c8161266f565b811461281757600080fd5b50565b60008135905061282981612803565b92915050565b600060208284031215612845576128446126e5565b5b60006128538482850161281a565b91505092915050565b60006060820190506128716000830186612679565b81810360208301526128838185612636565b905081810360408301526128978184612636565b9050949350505050565b60008115159050919050565b6128b6816128a1565b82525050565b6000610140820190506128d2600083018d6125d0565b6128df602083018c6125d0565b6128ec604083018b612679565b6128f9606083018a612679565b6129066080830189612679565b61291360a08301886128ad565b61292060c08301876128ad565b81810360e08301526129328186612636565b9050612942610100830185612679565b612950610120830184612679565b9b9a5050505050505050505050565b600060608201905061297460008301866125d0565b81810360208301526129868185612636565b9050818103604083015261299a8184612636565b9050949350505050565b600080fd5b600080fd5b7f4e487b7100000000000000000000000000000000000000000000000000000000600052604160045260246000fd5b6129e682612625565b810181811067ffffffffffffffff82111715612a0557612a046129ae565b5b80604052505050565b6000612a186126db565b9050612a2482826129dd565b919050565b600067ffffffffffffffff821115612a4457612a436129ae565b5b612a4d82612625565b9050602081019050919050565b82818337600083830152505050565b6000612a7c612a7784612a29565b612a0e565b905082815260208101848484011115612a9857612a976129a9565b5b612aa3848285612a5a565b509392505050565b600082601f830112612ac057612abf6129a4565b5b8135612ad0848260208601612a69565b91505092915050565b60008060008060808587031215612af357612af26126e5565b5b6000612b0187828801612706565b945050602085013567ffffffffffffffff811115612b2257612b216126ea565b5b612b2e87828801612aab565b935050604085013567ffffffffffffffff811115612b4f57612b4e6126ea565b5b612b5b87828801612aab565b9250506060612b6c8782880161281a565b91505092959194509250565b600080600060608486031215612b9157612b906126e5565b5b6000612b9f86828701612706565b935050602084013567ffffffffffffffff811115612bc057612bbf6126ea565b5b612bcc86828701612aab565b925050604084013567ffffffffffffffff811115612bed57612bec6126ea565b5b612bf986828701612aab565b9150509250925092565b6000602082019050612c186000830184612679565b92915050565b6000606082019050612c3360008301866125d0565b612c406020830185612679565b612c4d6040830184612679565b949350505050565b60008060408385031215612c6c57612c6b6126e5565b5b6000612c7a85828601612706565b9250506020612c8b8582860161281a565b9150509250929050565b600080600080600080600060e0888a031215612cb457612cb36126e5565b5b600088013567ffffffffffffffff811115612cd257612cd16126ea565b5b612cde8a828b01612aab565b975050602088013567ffffffffffffffff811115612cff57612cfe6126ea565b5b612d0b8a828b01612aab565b9650506040612d1c8a828b0161281a565b9550506060612d2d8a828b0161281a565b9450506080612d3e8a828b01612706565b93505060a088013567ffffffffffffffff811115612d5f57612d5e6126ea565b5b612d6b8a828b01612aab565b92505060c0612d7c8a828b0161281a565b91505092959891949750929550565b60006060820190508181036000830152612da58186612636565b90508181036020830152612db98185612636565b90508181036040830152612dcd8184612636565b9050949350505050565b60008060008060808587031215612df157612df06126e5565b5b6000612dff87828801612706565b945050602085013567ffffffffffffffff811115612e2057612e1f6126ea565b5b612e2c87828801612aab565b935050604085013567ffffffffffffffff811115612e4d57612e4c6126ea565b5b612e5987828801612aab565b925050606085013567ffffffffffffffff811115612e7a57612e796126ea565b5b612e8687828801612aab565b91505092959194509250565b7f4e487b7100000000000000000000000000000000000000000000000000000000600052602260045260246000fd5b60006002820490506001821680612ed957607f821691505b602082108103612eec57612eeb612e92565b5b50919050565b7f74686973206c616e6420697320616c726561647920617669616c626c65000000600082015250565b6000612f28601d836125ea565b9150612f3382612ef2565b602082019050919050565b60006020820190508181036000830152612f5781612f1b565b9050919050565b60008190508160005260206000209050919050565b60006020601f8301049050919050565b600082821b905092915050565b600060088302612fc07fffffffffffffffffffffffffffffffffffffffffffffffffffffffffffffffff82612f83565b612fca8683612f83565b95508019841693508086168417925050509392505050565b6000819050919050565b6000613007613002612ffd8461266f565b612fe2565b61266f565b9050919050565b6000819050919050565b61302183612fec565b61303561302d8261300e565b848454612f90565b825550505050565b600090565b61304a61303d565b613055818484613018565b505050565b5b818110156130795761306e600082613042565b60018101905061305b565b5050565b601f8211156130be5761308f81612f5e565b61309884612f73565b810160208510156130a7578190505b6130bb6130b385612f73565b83018261305a565b50505b505050565b600082821c905092915050565b60006130e1600019846008026130c3565b1980831691505092915050565b60006130fa83836130d0565b9150826002028217905092915050565b613113826125df565b67ffffffffffffffff81111561312c5761312b6129ae565b5b6131368254612ec1565b61314182828561307d565b600060209050601f8311600181146131745760008415613162578287015190505b61316c85826130ee565b8655506131d4565b601f19841661318286612f5e565b60005b828110156131aa57848901518255600182019150602085019450602081019050613185565b868310156131c757848901516131c3601f8916826130d0565b8355505b6001600288020188555050505b505050505050565b7f4e487b7100000000000000000000000000000000000000000000000000000000600052601160045260246000fd5b60006132168261266f565b91507fffffffffffffffffffffffffffffffffffffffffffffffffffffffffffffffff8203613248576132476131dc565b5b600182019050919050565b7f74686973206c616e64206973206e6f7420666f722073616c6500000000000000600082015250565b60006132896019836125ea565b915061329482613253565b602082019050919050565b600060208201905081810360008301526132b88161327c565b9050919050565b7f6f6e6c792041646d696e2063616e207265676973746572206c616e6400000000600082015250565b60006132f5601c836125ea565b9150613300826132bf565b602082019050919050565b60006020820190508181036000830152613324816132e8565b905091905056fea264697066735822122083ebebbbca300306d65071807d70c8e5d0461d1beeb241662fc4407f342f6f5864736f6c63430008130033",
  "immutableReferences": {},
  "source": "pragma solidity >=0.4.25 <0.9.0;\r\ncontract lands{\r\n     struct Admin {\r\n          address adminAdress;\r\n          string adminName;\r\n          string area;     \r\n}\r\n//  \r\nstruct landDetails{\r\n     address owner;\r\n     address admin;\r\n     uint256 propertyPID;\r\n     uint256 surveynumb;\r\n     uint256 index;\r\n     bool registered;\r\n     bool makeAvialbel;\r\n    // string directorate;\r\n     string area;\r\n     //string register_date;\r\n     uint256 size_meter;\r\n     // string  boundryNorth;\r\n     // string  boundrySouth;\r\n     // string  boundryEast;\r\n     // string  boundryWestern;\r\n     uint256   noOfRequested;\r\n     //reqNo=>RequestDetails\r\n      mapping (uint=>RequestDetails)requests;\r\n}\r\n//   \r\nstruct UserProfile{\r\n     address useraddress;\r\n     string fullname;\r\n     // string gender;\r\n     string contact;\r\n     string email;\r\n    uint256 totalIndices;\r\n    uint256 requesIndices;\r\n    \r\n}\r\n//    \r\nstruct ownerOwns{\r\n     uint surveynumber;\r\n     string state;\r\n     string city;\r\n}\r\n//     \r\nstruct RequestedLands {\r\n     uint surveynumber;\r\n     string state;\r\n     string city;     \r\n}\r\nstruct LandsForsale{\r\n     uint surveynumber;\r\n     string state;\r\n     string city;     \r\n}\r\n//  \r\nstruct RequestDetails {\r\n     address whoRequested;\r\n     uint reqIndex;\r\n}\r\n//string=>mapping (string=>mapping\r\nmapping(address => uint256[]) private ownerLandIds;//\r\n\r\n\r\nmapping (address => Admin) public admins;\r\nmapping (address =>ownerOwns) public ownerMapsProperty;\r\nmapping (address=>landDetails) public landDetailsMap;\r\nmapping(uint => LandsForsale) public landForSale;\r\nmapping(address=>RequestedLands) public requests1;\r\n\r\n\r\nmapping (address=>UserProfile) public userProfile;\r\n// //variable declartion\r\n //address public superAdmin;\r\n uint256 public totalAdmin=1;\r\nuint256 public totalIndices=1;\r\nuint256 public indexs=0;\r\naddress addressreq;\r\n// constructor (){\r\n//      superAdmin=msg.sender;     \r\n// }\r\nmodifier onlyAdmin() {\r\n     require(admins[msg.sender].adminAdress==msg.sender,\"only Admin can register land\");\r\n     _;\r\n}\r\n \r\n\r\n\r\n// // \r\nfunction addAdmin(address _adminAddress,string memory _adminName,string memory _city)external {\r\n     Admin storage newAdmin=admins[_adminAddress];\r\n     totalAdmin++;\r\n     newAdmin.adminAdress=_adminAddress;\r\n     newAdmin.area=_city;\r\n     newAdmin.adminName=_adminName;     \r\n}//  \r\n// function IsAdmin()external view returns(bool) {\r\n//      if(admins[msg.sender]==msg.sender){\r\n//           return true;}\r\n//      else return false;     \r\n// }\r\n//  \r\nfunction registerLand(\r\n     //string memory _admin_name,\r\n     string memory _city,\r\n     string memory _state,\r\n     uint256 _propertyPID,\r\n     uint _surveynumber,\r\n     address _owner,\r\n    // string memory _directorate,\r\n     string memory _area, \r\n     uint256 _size_meter\r\n     // string memory _boundry_North,\r\n     // string memory  _boundry_South\r\n    //string memory _register_Date\r\n     //string memory _boundry_Western\r\n    ) external {\r\n     // require(keccak256(abi.encodePacked(admins[msg.sender].admin_name))==keccak256(abi.encodePacked(_admin_name))&&\r\n     // keccak256(abi.encodePacked(admins[msg.sender].city))==keccak256(abi.encodePacked(_city)),\"kkkkkkkk\")\r\n     // require(landDetailsMap[_state][_city][_surveynumber].registered==false,\"sssssss\");\r\n     landDetails storage newLandRegistry=landDetailsMap[_owner];\r\n     ownerOwns storage newOwnerOwnes=ownerMapsProperty[_owner];\r\n     newLandRegistry.owner=_owner;\r\n     newLandRegistry.admin=msg.sender;\r\n     newLandRegistry.propertyPID=_propertyPID;\r\n     newLandRegistry.surveynumb=_surveynumber;\r\n     newLandRegistry.index=userProfile[_owner].totalIndices;\r\n     newLandRegistry.registered=true;\r\n     newLandRegistry.makeAvialbel=false;\r\n   //  newLandRegistry.register_date=_register_Date;\r\n     // newLandRegistry.boundryNorth=_boundry_North;\r\n     //newLandRegistry.boundry_Western=_boundry_Western;\r\n     // newLandRegistry.boundrySouth=_boundry_South;\r\n     newLandRegistry.size_meter=_size_meter;\r\n     newLandRegistry.area=_area;\r\n     //newLandRegistry.directorate=_directorate;\r\n     newOwnerOwnes.surveynumber=_surveynumber;\r\n     newOwnerOwnes.state=_state;\r\n     newOwnerOwnes.city=_city;\r\n     userProfile[_owner].totalIndices++;}\r\n\r\n     //   \r\nfunction setUserProfile(address address1,string memory _fullName,string memory _email,string memory _contact)public {\r\n          UserProfile storage newUserProfile=userProfile[address1];\r\n          newUserProfile.fullname=_fullName;\r\n          // newUserProfile.gender=_gender;\r\n          newUserProfile.email=_email;\r\n          newUserProfile.contact=_contact;\r\n\r\n     }\r\n       \r\n\r\n\r\n\r\n  \r\n//      //   \r\n     function MakePropertyAvailble(address address1)external {\r\n          string memory state=ownerMapsProperty[address1].state;\r\n          string memory city=ownerMapsProperty[address1].city;\r\n          uint surveynumber=ownerMapsProperty[address1].surveynumber;\r\n          require(landDetailsMap[address1].makeAvialbel==false,\"this land is already avialble\");\r\n          landDetailsMap[address1].makeAvialbel=true;\r\n          LandsForsale storage land1=landForSale[0];\r\n          land1.city=city;\r\n          land1.state=state;\r\n          land1.surveynumber=surveynumber;\r\n          indexs++;\r\n\r\n         \r\n        }\r\nfunction getLandsale()external view returns(string memory,string memory,uint) {\r\nuint surveyNo=landForSale[0].surveynumber;\r\nstring memory state=landForSale[0].state;\r\nstring memory city=landForSale[0].city;\r\nreturn(state,city,surveyNo);     \r\n}\r\nfunction getLRequseted()external view returns(address,string memory,string memory,uint) {\r\nuint surveyNo= landForSale[0].surveynumber;\r\nstring memory state=landForSale[0].state;\r\nstring memory city=landForSale[0].city;\r\nreturn(addressreq,state,city,surveyNo);     \r\n}\r\n      \r\n        \r\n\r\n// //      //   \r\n     function RequestForBuy(address address1,string memory _state,string memory _city,uint _surveynumber)external {\r\n          landDetails storage thisLandDetail=landDetailsMap[address1];\r\n          require(thisLandDetail.makeAvialbel==true,\"this land is not for sale\");\r\n          uint req_serialNum=thisLandDetail.noOfRequested;\r\n          thisLandDetail.requests[req_serialNum].whoRequested=address1;\r\n          thisLandDetail.requests[req_serialNum].reqIndex=userProfile[address1].requesIndices;\r\n          thisLandDetail.noOfRequested++;\r\n          //adding requseted land to user2 profile\r\n          RequestedLands storage newRequestedLands=requests1[address1];\r\n          newRequestedLands.surveynumber=_surveynumber;\r\n          newRequestedLands.state=_state;\r\n          newRequestedLands.city=_city;\r\n          addressreq=address1;\r\n          userProfile[address1].requesIndices++;\r\n          LandsForsale storage land=landForSale[0];\r\n          land.city=_city;\r\n          land.state=_state;\r\n          land.surveynumber=_surveynumber;}\r\n      \r\n          \r\n// //      //    \r\n//      function AcceptRequest(address address1,uint _reqNo)external payable {\r\n//           uint _surveyNo=ownerMapsProperty[address1].surveynumber;\r\n//           string memory _state=ownerMapsProperty[address1].state;\r\n//           string memory _city=ownerMapsProperty[address1].city;\r\n//           //updating landDetails\r\n//           address newOwner=landDetailsMap[_state][_city][_surveyNo].requests[_reqNo].whoRequested;\r\n//           //uint newOwner_reqIndex=landDetailsMap[_state][_city][_surveyNo].requests[_reqNo].reqIndex;\r\n//         uint noOfReq=landDetailsMap[_state][_city][_surveyNo].noOfRequested;\r\n//    //deleting reqested land from all requested And removing all incoming requests\r\n//    for(uint i=0;i<noOfReq;i++){\r\n//      address requesterAddr=landDetailsMap[_state][_city][_surveyNo].requests[i].whoRequested;\r\n//      uint requester_reqIndex=landDetailsMap[_state][_city][_surveyNo].requests[i].reqIndex;\r\n//      delete registeredland[requesterAddr][requester_reqIndex];\r\n//      delete landDetailsMap[_state][_city][_surveyNo].requests[i];\r\n//    }\r\n//    landDetailsMap[_state][_city][_surveyNo].owner=newOwner;\r\n//    landDetailsMap[_state][_city][_surveyNo].makeAvialbel=false;\r\n//    landDetailsMap[_state][_city][_surveyNo].noOfRequested=0;\r\n//    //deleting property from user ownermapProperty\r\n//    delete ownerMapsProperty[address1];\r\n//    payable(msg.sender).transfer(2 ether);\r\n//    //   ( )\r\n     \r\n// uint newOwnerTotProp=userProfile[newOwner].totalIndices;\r\n// ownerOwns storage newOwnerOwnes=ownerMapsProperty[newOwner];\r\n// newOwnerOwnes.surveynumber=_surveyNo;\r\n// newOwnerOwnes.state=_state;\r\n// newOwnerOwnes.city=_city;\r\n// landDetailsMap[_state][_city][_surveyNo].index=newOwnerTotProp;\r\n// userProfile[newOwner].totalIndices++;\r\n//      }\r\nfunction acceptRequest(address address1, uint _reqNo) external payable onlyAdmin {\r\n    address newOwner = landDetailsMap[address1].requests[_reqNo].whoRequested;\r\n    string memory state = ownerMapsProperty[address1].state;\r\n    string memory city = ownerMapsProperty[address1].city;\r\n    uint surveyNo = ownerMapsProperty[address1].surveynumber;\r\n\r\n    // Updating landDetails\r\n    landDetailsMap[address1].owner = newOwner;\r\n    landDetailsMap[address1].makeAvialbel = false;\r\n    landDetailsMap[address1].noOfRequested = 0;\r\n\r\n    // Deleting requested land from all requested and removing all incoming requests\r\n//     for(uint i = 0; i < landDetailsMap[address1].noOfRequested; i++) {\r\n//         address requesterAddr = landDetailsMap[address1].requests[i].whoRequested;\r\n//         uint requesterReqIndex = landDetailsMap[address1].requests[i].reqIndex;\r\n//         delete requests1[requesterAddr];\r\n//         delete landDetailsMap[address1].requests[i];\r\n//     }\r\n\r\n    // Transferring ownership by adding the land to the new owner\r\n    ownerOwns storage newOwnerOwnes = ownerMapsProperty[newOwner];\r\n    newOwnerOwnes.surveynumber = surveyNo;\r\n    newOwnerOwnes.state = state;\r\n    newOwnerOwnes.city = city;\r\n    landDetailsMap[address1].index = userProfile[newOwner].totalIndices;\r\n    userProfile[newOwner].totalIndices++;\r\n\r\n    // Transferring the payment to the current admin\r\n    payable(msg.sender).transfer(msg.value);\r\n}\r\n\r\n     //   \r\n     function getLandDetails(address address1)external view returns(address,uint256,uint) {\r\n          address owner=landDetailsMap[address1].owner;\r\n          uint256 propertyid=landDetailsMap[address1].propertyPID;\r\n          uint index=landDetailsMap[address1].index;\r\n          return(owner,propertyid,index);\r\n          \r\n     }\r\n        \r\n     //\r\n//      function getRequestcnt_proId(string memory _state,string memory _city,uint _surveyNo)external view returns(uint,uint256) {\r\n//           uint _noOfRequestes=landDetailsMap[_state][_city][_surveyNo].noOfRequested;\r\n//           uint256 _propertyId=landDetailsMap[_state][_city][_surveyNo].propertyPID;\r\n//           return(_noOfRequestes,_propertyId);\r\n          \r\n//      }\r\n\r\n//      //        \r\n// function getRequesterDetail(string memory _state,string memory _city,uint _surveyNo,uint _reqIndex)external view returns(address) {\r\n//      address requester=landDetailsMap[_state][_city][_surveyNo].requests[_reqIndex].whoRequested;\r\n//      return(requester);\r\n     \r\n// }\r\n//      \r\n// function IsAvailable(string memory _state,string memory _city,uint _surveyNo)external view returns(bool) {\r\n// bool available=landDetailsMap[_state][_city][_surveyNo].makeAvialbel;\r\n// return(available);     \r\n// }\r\n//      \r\nfunction getownerOwns(address address1)external view returns(string memory,string memory,uint) {\r\nuint surveyNo=ownerMapsProperty[address1].surveynumber;\r\nstring memory state=ownerMapsProperty[address1].state;\r\nstring memory city=ownerMapsProperty[address1].city;\r\nreturn(state,city,surveyNo);     \r\n}\r\n// ///////          \r\n// function getRequestedLands(address address1)external view returns(string memory,string memory,uint) {\r\n// uint surveyNo=landForSale[address1].surveynumber;\r\n// string memory state=landForSale[address1].state;\r\n// string memory city=landForSale[address1].city;\r\n// return(state,city,surveyNo);     \r\n// }\r\n//    \r\nfunction getUserProfile(address address1)external view returns(string memory,string memory,string memory) {\r\nstring memory contact=userProfile[address1].contact;\r\nstring memory fullname=userProfile[address1].fullname;\r\nstring memory email=userProfile[address1].email;\r\n// string memory gender=userProfile[msg.sender].gender;\r\nreturn(fullname,email,contact);\r\n\r\n}\r\n\r\n     \r\n}\r\n\r\n\r\n\r\n\r\n",
  "sourcePath": "C:\\Users\\PC\\Desktop\\solidity\\truffle\\contracts\\lands.sol",
  "compiler": {
    "name": "solc",
    "version": "0.8.19+commit.7dd6d404.Emscripten.clang"
  },
  "schemaVersion": "3.4.13",
  "updatedAt": "2023-11-10T14:15:02.953Z",
  "networkType": "ethereum",
  "devdoc": {
    "kind": "dev",
    "methods": {},
    "version": 1
  },
  "userdoc": {
    "kind": "user",
    "methods": {},
    "version": 1
  }
}